:10140600040C000000000418000000000410000096
:101416000000040800000000041400000000021C84
:061426000000021E0000A0
:101342007F03120B7CD2AF1214A11200031214AE4F
:1013520012001EAF0BAE0AAD09AC08E4120106A8DA
:1013620004A905AA06AB077F007E407D1C7C4612BD
:1013720000698F178E168D158C147F647E007D0098
:081382007C001211BF80CC2297
:10000300D28ED2AB438E1053890F438910E4F58D02
:06001300F58B43B3082247
:03001B0002005888
:09005800C28F758D00758B00321A
:0C14AE00439B80D2CA53C8FEE4F5C9225B
:03002B0002120FAF
:10120F00C0E0C0D075D000C000C001C002C004C093
:10121F0005C006C007C2CFAF0FAE0EAD0DAC0CE4CC
:10122F00FAF9F8EF2401F50FEA3EF50EE93DF50D59
:10123F00E83CF50C051DE51D7002051CD007D00616
:0F124F00D005D004D002D001D000D0D0D0E032F2
:0D001E004392105393FC439410439B042223
:03006300020E3357
:100E3300C0E0C0D075D000C000C004C005C006C06B
:100E430007E592540164016003020EDC051FE51FF0
:100E53007002051E5392FEAFE5E48F1BF51AF519D8
:100E6300F518AF1BAE1AAD19AC1878081206868FA9
:100E73001B8E1A8D198C18AFE4E4E51B4FF51BE5A7
:100E83001AF51AE519F519E518F518AF0FAE0EADF9
:100E93000DAC0C7810120686C3EF9513FFEE951276
:100EA300FEED9511FDEC9510FCEF251BF50BEE35D2
:100EB3001AF50AED3519F509EC3518F508AF1BAE2F
:100EC3001AAD19AC188F138E128D118C10750F007B
:100ED300750E00750D00750C00D007D006D005D037
:080EE30004D000D0D0D0E032B1
:0D14A10053B5FD43B60243B50153B6FE221C
:100B7C00EF14606E147003020C98147003020CD9FD
:100B8C00147003020C4324046003020D18A2AF92EC
:100B9C0009C2AF75C7AA75C755439780A20992AF12
:100BAC00A2AF9209C2AF75C7AA75C7555397BFA21A
:100BBC000992AFE596548060FAA2AF9209C2AF7564
:100BCC00C7AA75C7555396FBA20992AFA2AF92095B
:100BDC00C2AF75C7AA75C755439602A20992AF0258
:100BEC000D18A2AF9209C2AF75C7AA75C755539716
:100BFC007FA20992AFA2AF9209C2AF75C7AA75C7FF
:100C0C0055439740A20992AFE596544060FAA2AFC3
:100C1C009209C2AF75C7AA75C7555396FBA2099224
:100C2C00AFA2AF9209C2AF75C7AA75C7554396025A
:100C3C00A20992AF020D18A2AF9209C2AF75C7AA52
:100C4C0075C75553977FA20992AFA2AF9209C2AF55
:100C5C0075C7AA75C7555397BFA20992AFE59654AD
:100C6C000860FAA2AF9209C2AF75C7AA75C75553EF
:100C7C0096FBA20992AFA2AF9209C2AF75C7AA7533
:100C8C00C755439602A20992AF020D18A2AF920962
:100C9C00C2AF75C7AA75C755439720A20992AFE595
:100CAC0096542060FAA2AF9209C2AF75C7AA75C755
:100CBC00555396FBA20992AFA2AF9209C2AF75C76A
:100CCC00AA75C7555396FDA20992AF803FA2AF9269
:100CDC0009C2AF75C7AA75C755439710A20992AF41
:100CEC00E596541060FAA2AF9209C2AF75C7AA7507
:100CFC00C755439604A20992AFA2AF9209C2AF7531
:100D0C00C7AA75C7555396FDA20992AFE597540132
:050D1C00640160F822F3
:1013DE0075985243892053877F538EEF53C4DFABEA
:1013EE0007AA06A905A804E4FF7EE1FDFC1205C2CA
:0813FE00EFF404F58DD28E22FC
:10002E00759852438920438780538EEF53C4DFABBC
:10003E0007AA06A905A8047F007EC27D017C0012D6
:0A004E0005C2EFF404F58DD28E22F6
:10138A0075985243892053877F438E1053C4DFAB2D
:10139A0007AA06A905A8047F007E8C7D0A7C001294
:0A13AA0005C2EFF404F58DD28E2287
:1013B400759852438920438780438E1053C4DFAB12
:1013C40007AA06A905A8047F007E187D157C0012D3
:0A13D40005C2EFF404F58DD28E225D
:100F85008F418E408D3F8C3E75985253877F53C459
:100F9500F843C420AB41AA40A93FA83E7F007E8C00
:100FA5007D0A7C001205C2C3E49FFFE49EFE740126
:100FB5009DFDE49CFC78081206738FC6AB41AA40E0
:100FC500A93FA83E7F007E8C7D0A7C001205C2C326
:100FD500E49FFFE49EFE74019DFDE49CFCEFE48F1D
:050FE500C543C4082211
:100FEA008F458E448D438C4275985243878053C4F3
:100FFA00F843C420AB45AA44A943A8427F007E18FF
:10100A007D157C001205C2C3E49FFFE49EFE7401B5
:10101A009DFDE49CFC78081206738FC6AB45AA4472
:10102A00A943A8427F007E187D157C001205C2C321
:10103A00E49FFFE49EFE74019DFDE49CFCEFE48FB7
:05104A00C543C40822AB
:1010B2008F498E488D478C4675F85253C4F8AB4918
:1010C200AA48A947A8467F007E187D157C00120514
:1010D200C2C3E49FFFE49EFE74019DFDE49CFC7884
:1010E200081206738FC6AB49AA48A947A8467F00D3
:1010F2007E187D157C001205C2C3E49FFFE49EFEAC
:0F11020074019DFDE49CFCEFE48FC543C40822FB
:0714BA003098FDAF99C298C4
:0114C1002208
:0814C200C2998F993099FD22B7
:0714CA0030F8FDAF9AC2F8F3
:0114D10022F8
:0814D200C2F98F9A30F9FD22E6
:10148F00E4F5B1F5B2F5B3F5B4F5B5F5B6F5ACF5E0
:02149F00AD227C
:1014750075C7AA75C755A2AF9209C2AF75C7AA7538
:0A148500C755439F80A20992AF22D1
:0414DA0043B40822ED
:06104F00E55E24F8F55EE9
:10105500F81206BE00000000E47FFF7EFFFDFCA83D
:101065005E1206A5C3120662503CE55E2404F81222
:101075000699E4FAF9F8EF2401FFEA3EFEE93DFDA1
:10108500E83CFCE55E2404F81206B2A85E12069957
:10109500E4F8EF2401FFEA3EFEE93DFDE83CFCA84B
:0610A5005E1206B280B2EB
:0710AB00E55E2408F55E225A
:10145400538EF7438901D28CEF4E6012758AEE7574
:101464008CFF308DFDC28DEF1F70011E80EAC28C8F
:011474002255
:1012AC008F4D8E4C8D4B8C4A538EF7438901D28CCB
:1012BC00E4FFFEFDFCAB4DAA4CA94BA84AC3120699
:1012CC00626025758ACD758CF8308DFDC28D74FFEA
:1012DC00254DF54DE54C34FFF54CE54B34FFF54B06
:0B12EC00E54A34FFF54A80C8C28C229E
:1012F7008F518E508D4F8C4E538EEF438910D28E67
:10130700E4FFFEFDFCAB51AA50A94FA84EC312063D
:10131700626025758BCD758DF8308FFDC28F74FF98
:101327002551F551E55034FFF550E54F34FFF54FA2
:0B133700E54E34FFF54E80C8C28E2248
:10125E008F558E548D538C5253C9BF53C9DF43C91A
:10126E0010D2CAE4FFFEFDFCAB55AA54A953A852F6
:10127E00C3120662602575CC6675CDEA30CFFDC20D
:10128E00CF74FF2555F555E55434FFF554E5533429
:0E129E00FFF553E55234FFF55280C8C2CA2254
:1011BF008F5D8E5C8D5B8C5A75C40243C408E4FF4F
:1011CF00FEFDFCAB5DAA5CA95BA85AC31206626068
:1011DF002B75C56675C6EAE5C45410641070F853D4
:1011EF00C4EF74FF255DF55DE55C34FFF55CE55BF1
:1011FF0034FFF55BE55A34FFF55A80C253C4F7222A
:101169008F598E588D578C56538FFB538FFD538F44
:10117900FEE4F586538FDF438F08E4FFFEFDFCABE9
:1011890059AA58A957A856C31206626025E58F5473
:1011990010641070F8538FEF74FF2559F559E5580D
:1011A90034FFF558E55734FFF557E55634FFF55642
:0611B90080C8538FF722ED
:100D21000A3D3D3D3D3D3D3D3D3D3D3D3D3D3D3D25
:100D31003D3D3D3D3D3D3D3D3D3D3D3D3D3D3D3DE2
:100D41003D3D3D3D3D3D3D3D3D3D3D3D3D3D3D3DD2
:100D51003D3D3D3D3D3D3D3D3D3D3D3D3D3D3D3DC2
:100D61003D3D3D3D3D000A2A2020436F7079726967
:100D71006768742863292032303135204E75766FCB
:100D8100746F6E20546563686E6F6C6F6779204372
:100D91006F72702E20416C6C2072696768747320C9
:100DA10072657365727665642E2020000A2A202000
:100DB100436F6E7461637420452D4D61696C3A20F7
:100DC1004D6963726F432D38626974406E75766F39
:100DD100746F6E2E636F6D20202020202020202034
:100DE1002020202020202020202020202020202002
:100DF10020000A2A202044656D6F205665727369B0
:100E01006F6E20203A202532642E2532642E253241
:100E110064000A2A202046696E697368656420446B
:100E2100617465203A202532642E2532642E2532E4
:020E310064005B
:101111007BFF7A0D792112076F7BFF7A0D796712B8
:10112100076F7BFF7A0D79AD12076F7BFF7A0D791F
:10113100F3752500752601E4F527F528F529F52A2B
:1011410012076F7BFF7A0E79137525077526DF75F8
:101151002700752805752900752A0112076F7BFF85
:081161007A0D792112076F22BB
:03000000020EEB02
:100EEB00787FE4F6D8FD9000007FFF7E01E4F0A34D
:0A0EFB00DFFCDEFA75815E020F4095
:10006600020183EC5D046005E8590470030201791E
:10007600120144580460F6EC4860F2EC7004FDFE90
:10008600FF22C860DB2481C85009C398600250066D
:100096000201809850CAF582E9294B4A7005AB8265
:1000A60002016F75F0007C1A7880C3EF9BEE9AED23
:1000B60099400DC3EF9BFFEE9AFEED99FDE842F0E5
:1000C600DC23ACF0D0E0FFD0E0FED0E0FDAB822038
:1000D600E7101BEB60BAEC2CFCEF33FFEE33FEEDC2
:1000E60033FD02015BE803F830E705C0F075F00068
:1000F600EF2FFFEE33FEED33FD40B830E7C280AAA6
:1001060075F020800E75F010800575F0087D007E74
:10011600007F003392D530D503120654EC334010DD
:10012600EF33FFEE33FEED33FDEC33FCD5F0ED227D
:0E013600E5F0247EA2D513CC92E7CDCEFF22B9
:10070D00E5392425F8E605392278223007027825C7
:10071D00E475F0011206D702052E2000EB7F2ED2D4
:10072D00008018EF540F2490D43440D4FF30040BC4
:10073D00EF24BFB41A0050032461FFE53A6002159F
:10074D003A053DE53D7002053C30070D7822E47514
:10075D00F0011206D7EF02057402142D7403D207AF
:10076D008003E4C207F5398B228A238924E4F53A04
:10077D00F53CF53DE53A60077F2012074880F57599
:10078D003BFFC201C200C202C203C205C206C208BB
:10079D00120716FF700D3007057F00120759AF3D88
:1007AD00AE3C22B4255FC2D5C204120716FF24D079
:1007BD00B40A00501A75F00A783A30D50508B6FF1C
:1007CD000106C6A426F620D5047002D20380D924D2
:1007DD00CFB41A00EF5004C2E5D204020A46D2018A
:1007ED0080C6D20080C0D20280BCD2D580BAD205DC
:1007FD0080B47F201207482002077401B53A0040EB
:10080D00F112070DFF120748020781D208D20680A8
:10081D009512070DFB12070DFA12070DF94A4B70D1
:10082D0006793D7A0B7BFF20022EE53A602A7E0089
:10083D008E8275830012054760060EEE653B70F0E3
:10084D00C2D5EBC0E0EAC0E0E9C0E0EE120AA6D0E6
:10085D00E0F9D0E0FAD0E0FB12052EFF60AAEBC064
:10086D00E0EAC0E0E9C0E0120748D0E02401F9D089
:10087D00E03400FAD0E0FBE53B0460DCD53BD980E9
:10088D0087D20280A2120A8960F7E53B700104123B
:10089D00018EA93B600DE53B600914F53B120B3051
:1008AD00EF60F3EA30E702F404C3995077EAF425D8
:1008BD003B0430E701E404F53B800D120A8960C169
:1008CD00EA053B253B12018EEA7838F630E701E464
:1008DD00253B04D53B0420050114120AA6E4C0E013
:1008ED00120B307838E6601320E70714F612073044
:1008FD00802204F6D0E014C0E07F00120730E53B03
:10090D006007120727153B800B300503120727D010
:10091D00E0020781D0E00480C5120A8960A0E53BA2
:10092D000412018E7838EAF6E53B200502600104D9
:05093D002404120AA6CB
:1009420074FF04C0E0120B30120730E53B200502B1
:100952006003120727D0E0B53BE87F4512073A78DB
:1009620038E67F2B30E7047F2DF404C0E0120748FD
:10097200D0E075F00A84C0F0120731D0E0120731DE
:10098200020781791080027908C206C2088008D263
:10099200D5790A8004790AC2D5E53B047002F53B99
:1009A200E4FAFDFEFF12070DFC7B0820011312077B
:1009B2000DFD7B1030000A12070DFE12070DFF7BA2
:1009C20020EC3382D592D55013C3E43000069FFF4A
:1009D200E49EFEE42001039DFDE49CFCE4CBF8C20E
:1009E20001EC700CCFCECDCCE824F8F870F3801770
:1009F200C3EF33FFEE33FEED33FDEC33FCEB33FBA1
:100A0200994002FB0FD8E9EB300105F8D0E0C44869
:100A1200B201C0E00AEC4D4E4F78207B0070C2EA72
:100A2200B53B0040BCC0E0120AA8D0F0D0E02001E3
:100A320004C4C0E0C4B201C0F0120731D0F0D5F056
:100A4200EB0207811206E7081E5309855807EF4C8F
:100A520007EB4209894F0991440991490804430966
:100A6200975508C8460926450892470B5D5007F37B
:100A72002D07F72E081A2B07FB230818200B462AEE
:100A820007B34800000812E53BB4FF03753B0612AA
:100A9200070DFC12070DFD12070DFE12070DFF7860
:100AA200310201BD790AA2D5200314300509B9101B
:100AB200020404B9080104A2D52006025001042050
:100AC20002689202B53A005034C0E07F2030031928
:100AD2007F30A20272067205500F120AFFC202C2D2
:100AE20006C205C2087F30800F300503E9C0E0125C
:100AF2000748300503D0E0F9D0E0B53ACC3005170D
:100B02007F30B9100C1207487F583004077F788075
:100B120003B908031207483002057F2D0207487FF8
:100B2200202008F87F2B2006F322920280CF7F003C
:100B3200B4070050052431F8E6FF22286E756C6C6C
:100B42002900D20112070D3001F8C201783A30D5DE
:100B52000108F60207B32D5043495812070D24032A
:100B6200B405004001E4900B5893120739743A120D
:0A0B72000739D203753A0402098521
:10014400E9D2E7C933E833F892D5EDD2E7CD33EC01
:0701540033FC5002B2D5227A
:10015B00EC30E7100FBF000C0EBE00080DBD000405
:10016B000BEB6014A2D5EB13FCED92E7FD2274FFB1
:10017B00FCFDFEFF22E480F8A2D574FF13FC7D800A
:03018B00E480EF1E
:10018E00F920E72824F950037907E4F42402FB1838
:10019E00DBFDE624FB5014E9600DE4F618E604F6E8
:0F01AE00B40A08E4F6D9F57401F60A22C2D52284
:1001BD00ED33EC3392D5FA602AB4FF33EDC2E77B11
:1001CD00FF60067A0179E2E4227A0179EB20D50409
:1001DD007A0179E6224E614E002B494E46002D499B
:1001ED004E4600E47A08F608DAFC7B00740722E834
:1001FD00C0E0ECC0E0EDC0E0EEC0E0EFC0E0EA75BD
:10020D00F010A4CAABF075F04DA42BFBE435F0FC57
:10021D00EA2410FAEB34C5FBEC34D9FCEDC2E7FF50
:10022D0075F056A4F42411C5F0F434C58FF0A42A4A
:10023D00E5F03BE43CF620E7141204EED0E0FFD0ED
:10024D00E0FED0E0FDD0E0FC1200698014F4041251
:10025D0004EED0E0FFD0E0FED0E0FDD0E0FC1203D4
:10026D00B8D0E0F8E6FAEDD2E7CD33EC332482FBDB
:10027D00E4C3CF33CFCE33CECD33CD33DBF37B07DA
:10028D0075F00A846004F6081B0AE5F0F6088FF095
:10029D00740AA4FFACF08EF0740AA42CFEACF050DE
:1002AD00010C8DF0740AA42CFDE435F0F608DBDEAC
:0302BD00740722A1
:1002C000020179E86480F8E933E83360110460F0F2
:1002D000ED33EC337009E8FCE9FDEAFEEBFF2204A4
:1002E00060DED3EB9FEA9EE99DE8C2E78CF0C2F79F
:1002F00095F0400CE8CCF8E9CDF9EACEFAEBCFFB6B
:1003000012014485D0F05804700320D5B3E804707E
:10031000075002B2D502018392D5EC0460F7E4CC19
:10032000C0E0C398F8603B94186008400DD0E0FB33
:1003300002015BE4FBFAC9FC8028E830E406E4C96A
:10034000FBE4CAFCE830E305E4C9CACBFCE8540787
:100350006010F8C3E913F9EA13FAEB13FBEC13FC92
:10036000D8F130F52FC3E49CFCEF9BFFEE9AFEED35
:1003700099FDD0E0FBEF4E4D4C701222DB030201E1
:1003800080EC2CFCEF33FFEE33FEED33FDED30E778
:10039000EB02015BEF2BFFEE3AFEED39FDD0E0FB07
:1003A00050130BBB0003020183ED13FDEE13FEEFB0
:0803B00013FFEC13FC02015BDA
:1003B800EC4D6011E8497017ED33EC3304600DE43F
:1003C800FCFFFEFD22E933E8330470F802017912DC
:1003D800014458046009E4CC2481500628500902DD
:1003E8000183284003020180C0E0EB4A7044B980D1
:1003F80006D0E0FB02016FEF4E701CBD8008EBFFDA
:10040800EAFEE9FD80EBE98DF0A4FEE5F00204A127
:10041800E9CDF9EAFEEBFFEF89F0A4FCE5F0CE891F
:10042800F0A42EFFE435F0CD89F0A42DFEE435F0DC
:100438008067EF4E7005BD80D780C3EF8BF0A4AC0A
:10044800F0EE8BF0A42CFCE435F0F8EF8AF0A42C45
:10045800E5F038FCE433CB8DF0A42CFCE5F03BF858
:10046800EE8AF0A42CFCE5F038F8E433CF89F0A448
:100478002CFCE5F038CF3400CE89F0A42FFFE5F04E
:100488003EFEE433C98DF0A42EFEE5F039CD8AF0A6
:10049800A42FFFE5F03EFEE43DFD33D0E0FB50071E
:1004A8000BBB000F020183EC2CFCEF33FFEE33FE95
:0604B800ED33FD02015BC3
:1004BE003F8000004120000042C80000447A000046
:1004CE00461C400047C35000497424004B189680C8
:1004DE004CBEBC205A0E1BCA6753C21C749DC5AEBF
:1004EE00FB60065407601C232312051CEB54386076
:1004FE00091205081205171203B8ECF8EDF9EEFA19
:10050E00EFCB22EB12051780F1543803241C900414
:10051E00BEFE93FC0EEE93FD0EEE930ECE93FF22D7
:100F0500021342E493A3F8E493A34003F68001F2AD
:100F150008DFF48029E493A3F85407240CC8C333ED
:100F2500C4540F4420C8834004F456800146F6DFBC
:100F3500E4800B0102040810204080901406E47E32
:100F4500019360BCA3FF543F30E509541FFEE493B1
:100F5500A360010ECF54C025E060A840B8E493A378
:100F6500FAE493A3F8E493A3C8C582C8CAC583CAA3
:100F7500F0A3C8C582C8CAC583CADFE9DEE780BE5B
:01142C0000BF
:10052E00BB010689828A83E0225002E722BBFE02CB
:09053E00E32289828A83E49322FE
:10054700BB010CE58229F582E5833AF583E0225069
:1005570006E92582F8E622BBFE06E92582F8E222B3
:0D056700E58229F582E5833AF583E49322CD
:10057400BB010689828A83F0225002F722BBFE0166
:02058400F32260
:1005860075F008758200EF2FFFEE33FECD33CDCC2C
:1005960033CCC58233C5829BED9AEC99E5829840AF
:1005A6000CF582EE9BFEED9AFDEC99FC0FD5F0D68C
:1005B600E4CEFBE4CDFAE4CCF9A88222B800C1B9B6
:1005C6000059BA002DEC8BF084CFCECDFCE5F0CBF4
:1005D600F97818EF2FFFEE33FEED33FDEC33FCEB2D
:1005E60033FB10D703994004EB99FB0FD8E5E4F9E8
:1005F600FA227818EF2FFFEE33FEED33FDEC33FCD5
:10060600C933C910D7059BE99A4007EC9BFCE99AC8
:10061600F90FD8E0E4C9FAE4CCFB2275F010EF2F0D
:10062600FFEE33FEED33FDCC33CCC833C810D7070D
:100636009BEC9AE899400AED9BFDEC9AFCE899F848
:0E0646000FD5F0DAE4CDFBE4CCFAE4C8F922DB
:0E065400C3E49FFFE49EFEE49DFDE49CFC22B7
:10066200EB9FF5F0EA9E42F0E99D42F0E89C45F0EE
:010672002265
:10067300E8600FECC313FCED13FDEE13FEEF13FF65
:03068300D8F12289
:10068600E8600FEFC333FFEE33FEED33FDEC33FCD2
:03069600D8F12276
:0C069900E6FC08E6FD08E6FE08E6FF228D
:0D06A500E6FB08E6F908E6FA08E6CBF822C5
:0C06B200ECF608EDF608EEF608EFF62274
:1006BE00D083D082E493F608740193F60874029303
:0906CE00F608740393F67404733A
:1006D700FAE6FB0808E6F925F0F618E6CA3AF62224
:1006E700D083D082F8E4937012740193700DA3A3A2
:1006F70093F8740193F5828883E4737402936860B6
:06070700EFA3A3A380DFB5
:10142D00EFB40A07740D121438740A309811A89984
:10143D00B8130CC2983098FDA899C298B811F6301F
:07144D0099FDC299F59922F7
:00000001FF
