:0E13CB00020B000002080000010A00010D00E4
:0300630002124244
:10124200C0E0C0D075D000C007E59230E005050DC2
:101252005392FEE59230E1195392FD050AAFE7750C
:101262000B008F0CE50C750C00F50BAFE6EF420C92
:08127200E4D007D0D0D0E03237
:101200007F02120BA01213A0D2AF1213DA121368CE
:10121000D2A17F017E00121347C2A1AC0BAD0CE43A
:1012200012010BE4FBFA796878421200691201445A
:101230008E088F097FF47E017D007C0012116A8088
:02124000CF22BB
:10136800E4F5CBF5CAF5CCF5CD439B8043C9804362
:0E137800C90143C93053C9BF43C908D2CA22B4
:0D13DA00759230759301759430439B042289
:1013A00053B5FD43B60243B50153B6FE53B1F743FF
:0913B000B20853B1EF43B2102260
:100BA000EF14606E147003020CBC147003020CFD91
:100BB000147003020C6724046003020D3CA2AF9280
:100BC00009C2AF75C7AA75C755439780A20992AFEE
:100BD000A2AF9209C2AF75C7AA75C7555397BFA2F6
:100BE0000992AFE596548060FAA2AF9209C2AF7540
:100BF000C7AA75C7555396FBA20992AFA2AF920937
:100C0000C2AF75C7AA75C755439602A20992AF0233
:100C10000D3CA2AF9209C2AF75C7AA75C7555397CD
:100C20007FA20992AFA2AF9209C2AF75C7AA75C7DA
:100C300055439740A20992AFE596544060FAA2AF9F
:100C40009209C2AF75C7AA75C7555396FBA2099200
:100C5000AFA2AF9209C2AF75C7AA75C75543960236
:100C6000A20992AF020D3CA2AF9209C2AF75C7AA0A
:100C700075C75553977FA20992AFA2AF9209C2AF31
:100C800075C7AA75C7555397BFA20992AFE5965489
:100C90000860FAA2AF9209C2AF75C7AA75C75553CB
:100CA00096FBA20992AFA2AF9209C2AF75C7AA750F
:100CB000C755439602A20992AF020D3CA2AF92091A
:100CC000C2AF75C7AA75C755439720A20992AFE571
:100CD00096542060FAA2AF9209C2AF75C7AA75C731
:100CE000555396FBA20992AFA2AF9209C2AF75C746
:100CF000AA75C7555396FDA20992AF803FA2AF9245
:100D000009C2AF75C7AA75C755439710A20992AF1C
:100D1000E596541060FAA2AF9209C2AF75C7AA75E2
:100D2000C755439604A20992AFA2AF9209C2AF750C
:100D3000C7AA75C7555396FDA20992AFE59754010E
:050D4000640160F822CF
:1012F80075985243892053877F538EEF53C4DFABD1
:1013080007AA06A905A804E4FF7EE1FDFC1205F979
:08131800EFF404F58DD28E22E2
:10127A00759852438920438780538EEF53C4DFAB5E
:10128A0007AA06A905A8047F007EC27D017C001278
:0A129A0005F9EFF404F58DD28E2261
:1012A40075985243892053877F438E1053C4DFAB14
:1012B40007AA06A905A8047F007E8C7D0A7C00127B
:0A12C40005F9EFF404F58DD28E2237
:1012CE00759852438920438780438E1053C4DFABF9
:1012DE0007AA06A905A8047F007E187D157C0012BA
:0A12EE0005F9EFF404F58DD28E220D
:100EF1008F118E108D0F8C0E75985253877F53C4AE
:100F0100F843C420AB11AA10A90FA80E7F007E8C54
:100F11007D0A7C001205F9C3E49FFFE49EFE740183
:100F21009DFDE49CFC78081206AA8FC6AB11AA109D
:100F3100A90FA80E7F007E8C7D0A7C001205F9C3E3
:100F4100E49FFFE49EFE74019DFDE49CFCEFE48FB1
:050F5100C543C40822A5
:100F56008F158E148D138C1275985243878053C447
:100F6600F843C420AB15AA14A913A8127F007E1853
:100F76007D157C001205F9C3E49FFFE49EFE740113
:100F86009DFDE49CFC78081206AA8FC6AB15AA1430
:100F9600A913A8127F007E187D157C001205F9C3DF
:100FA600E49FFFE49EFE74019DFDE49CFCEFE48F4C
:050FB600C543C4082240
:100003008F198E188D178C1675F85253C4F8AB19C7
:10001300AA18A917A8167F007E187D157C00120563
:10002300F9C3E49FFFE49EFE74019DFDE49CFC780C
:10003300081206AA8FC6AB19AA18A917A8167F001B
:100043007E187D157C001205F9C3E49FFFE49EFE34
:0F00530074019DFDE49CFCEFE48FC543C40822BB
:0713E7003098FDAF99C29898
:0113EE0022DC
:0813EF00C2998F993099FD228B
:0713F70030F8FDAF9AC2F8C7
:0113FE0022CC
:0813FF00C2F98F9A30F9FD22BA
:1013B900E4F5B1F5B2F5B3F5B4F5B5F5B6F5ACF5B7
:0213C900AD2253
:1013860075C7AA75C755A2AF9209C2AF75C7AA7528
:0A139600C755439F80A20992AF22C1
:0414070043B40822C0
:060FBB00E51E24F8F51EFE
:100FC100F81206E200000000E47FFF7EFFFDFCA8AE
:100FD1001E1206C9C3120699503CE51E2404F812DC
:100FE10006BDE4FAF9F8EF2401FFEA3EFEE93DFD12
:100FF100E83CFCE51E2404F81206D6A81E1206BD24
:10100100E4F8EF2401FFEA3EFEE93DFDE83CFCA8DF
:061011001E1206D680B29B
:07101700E51E2408F51E226E
:10134700538EF7438901D28CEF4E6012758AEE7582
:101357008CFF308DFDC28DEF1F70011E80EAC28C9D
:011367002263
:10116A008F4D8E4C8D4B8C4A538EF7438901D28C0E
:10117A00E4FFFEFDFCAB4DAA4CA94BA84AC31206DC
:10118A00996025758ACD758CF8308DFDC28D74FFF6
:10119A00254DF54DE54C34FFF54CE54B34FFF54B49
:0B11AA00E54A34FFF54A80C8C28C22E1
:1011B5008F1D8E1C8D1B8C1A538EEF438910D28E7A
:1011C500E4FFFEFDFCAB1DAA1CA91BA81AC3120651
:1011D500996025758BCD758DF8308FFDC28F74FFA5
:1011E500251DF51DE51C34FFF51CE51B34FFF51B1E
:0B11F500E51A34FFF51A80C8C28E22F4
:10111C008F418E408D3F8C3E53C9BF53C9DF43C9AD
:10112C0010D2CAE4FFFEFDFCAB41AA40A93FA83E89
:10113C00C3120699602575CC6675CDEA30CFFDC219
:10114C00CF74FF2541F541E54034FFF540E53F34D0
:0E115C00FFF53FE53E34FFF53E80C8C2CA22D3
:1010CC008F458E448D438C4275C40243C408E4FFA3
:1010DC00FEFDFCAB45AA44A943A842C31206996085
:1010EC002B75C56675C6EAE5C45410641070F853C8
:1010FC00C4EF74FF2545F545E54434FFF544E5435D
:10110C0034FFF543E54234FFF54280C253C4F72265
:101076008F498E488D478C46538FFB538FFD538F78
:10108600FEE4F586538FDF438F08E4FFFEFDFCABDD
:1010960049AA48A947A846C31206996025E58F5470
:1010A60010641070F8538FEF74FF2549F549E54831
:1010B60034FFF548E54734FFF547E54634FFF54686
:0610C60080C8538FF722E1
:100D45000A3D3D3D3D3D3D3D3D3D3D3D3D3D3D3D01
:100D55003D3D3D3D3D3D3D3D3D3D3D3D3D3D3D3DBE
:100D65003D3D3D3D3D3D3D3D3D3D3D3D3D3D3D3DAE
:100D75003D3D3D3D3D3D3D3D3D3D3D3D3D3D3D3D9E
:100D85003D3D3D3D3D000A2A2020436F7079726943
:100D95006768742863292032303135204E75766FA7
:100DA500746F6E20546563686E6F6C6F677920434E
:100DB5006F72702E20416C6C2072696768747320A5
:100DC50072657365727665642E2020000A2A2020DC
:100DD500436F6E7461637420452D4D61696C3A20D3
:100DE5004D6963726F432D38626974406E75766F15
:100DF500746F6E2E636F6D20202020202020202010
:100E050020202020202020202020202020202020DD
:100E150020000A2A202044656D6F2056657273698B
:100E25006F6E20203A202532642E2532642E25321D
:100E350064000A2A202046696E6973686564204447
:100E4500617465203A202532642E2532642E2532C0
:020E5500640037
:10101E007BFF7A0D79451207937BFF7A0D798B1240
:10102E0007937BFF7A0D79D11207937BFF7A0E79A6
:10103E0017752500752601E4F527F528F529F52AFB
:10104E001207937BFF7A0E79377525077526DF75A4
:10105E002700752805752900752A011207937BFF55
:08106E007A0D79451207932267
:03000000020E5796
:100E5700787FE4F6D8FD9000007FFF7E01E4F0A3E1
:0A0E6700DFFCDEFA75814D020EACCF
:100066000201BAEC5D046005E8590470030201B0B0
:1000760012017B580460F6EC4860F2EC7004FDFE59
:10008600FF22C860DB2481C85009C398600250066D
:100096000201B79850CAF582E9294B4A7005AB822E
:1000A6000201A675F0007C1A7880C3EF9BEE9AEDEC
:1000B60099400DC3EF9BFFEE9AFEED99FDE842F0E5
:1000C600DC23ACF0D0E0FFD0E0FED0E0FDAB822038
:1000D600E7101BEB60BAEC2CFCEF33FFEE33FEEDC2
:1000E60033FD020192E803F830E705C0F075F00031
:1000F600EF2FFFEE33FEED33FD40B830E7C280AAA6
:1001060075F020800E75F010800575F0087D007E74
:10011600007F003392D530D50312068BEC334010A6
:10012600EF33FFEE33FEED33FDEC33FCD5F0ED227D
:0E013600E5F0247EA2D513CC92E7CDCEFF22B9
:10014400EDD2E7CD33EC3392D524814006E4FFFEB3
:10015400FDFC22FCE4CFCECDCC24E0501174FF8012
:10016400EDC3CC13CCCD13CDCE13CECF13CF0470AF
:07017400F030D5DE02068B1E
:10073100E5392425F8E605392278223007027825A3
:10074100E475F0011206FB0205652000EB7F2ED255
:10075100008018EF540F2490D43440D4FF30040BA0
:10076100EF24BFB41A0050032461FFE53A6002157B
:100771003A053DE53D7002053C30070D7822E475F0
:10078100F0011206FBEF0205AB0213207403D2073E
:100791008003E4C207F5398B228A238924E4F53AE0
:1007A100F53CF53DE53A60077F2012076C80F57551
:1007B1003BFFC201C200C202C203C205C206C20897
:1007C10012073AFF700D3007057F0012077DAF3D1C
:1007D100AE3C22B4255FC2D5C20412073AFF24D031
:1007E100B40A00501A75F00A783A30D50508B6FFF8
:1007F1000106C6A426F620D5047002D20380D924AE
:10080100CFB41A00EF5004C2E5D204020A6AD20141
:1008110080C6D20080C0D20280BCD2D580BAD205B7
:1008210080B47F2012076C2002077401B53A0040A2
:10083100F1120731FF12076C0207A5D208D2068018
:1008410095120731FB120731FA120731F94A4B7041
:100851000679617A0B7BFF20022EE53A602A7E0041
:100861008E8275830012057E60060EEE653B70F088
:10087100C2D5EBC0E0EAC0E0E9C0E0EE120ACAD09E
:10088100E0F9D0E0FAD0E0FB120565FF60AAEBC009
:10089100E0EAC0E0E9C0E012076CD0E02401F9D041
:1008A100E03400FAD0E0FBE53B0460DCD53BD980C5
:1008B10087D20280A2120AAD60F7E53B70010412F3
:1008C10001C5A93B600DE53B600914F53B120B54D2
:1008D100EF60F3EA30E702F404C3995077EAF425B4
:1008E1003B0430E701E404F53B800D120AAD60C121
:1008F100EA053B253B1201C5EA7838F630E701E409
:10090100253B04D53B0420050114120ACAE4C0E0CA
:10091100120B547838E6601320E70714F6120754D7
:10092100802204F6D0E014C0E07F00120754E53BBA
:10093100600712074B153B800B30050312074BD0A4
:10094100E00207A5D0E00480C5120AAD60A0E53B36
:10095100041201C57838EAF6E53B2005026001047E
:050961002404120ACA83
:1009660074FF04C0E0120B54120754E53B20050245
:10097600600312074BD0E0B53BE87F4512075E786F
:1009860038E67F2B30E7047F2DF404C0E012076CB5
:10099600D0E075F00A84C0F0120755D0E012075572
:1009A6000207A5791080027908C206C2088008D21B
:1009B600D5790A8004790AC2D5E53B047002F53B75
:1009C600E4FAFDFEFF120731FC7B08200113120733
:1009D60031FD7B1030000A120731FE120731FF7B12
:1009E60020EC3382D592D55013C3E43000069FFF26
:1009F600E49EFEE42001039DFDE49CFCE4CBF8C2EA
:100A060001EC700CCFCECDCCE824F8F870F380174B
:100A1600C3EF33FFEE33FEED33FDEC33FCEB33FB7C
:100A2600994002FB0FD8E9EB300105F8D0E0C44845
:100A3600B201C0E00AEC4D4E4F78207B0070C2EA4E
:100A4600B53B0040BCC0E0120ACCD0F0D0E020019B
:100A560004C4C0E0C4B201C0F0120755D0F0D5F00E
:100A6600EB0207A512070B08425309A95808134CB5
:100A7600080F4209AD4F09B54409B549082843098D
:100A8600BB5508EC46094A4508B6470B815008177E
:100A96002D081B2E083E2B081F23083C200B6A2A14
:100AA60007D74800000836E53BB4FF03753B06123E
:100AB6000731FC120731FD120731FE120731FF78AC
:100AC600310201F4790AA2D5200314300509B910C0
:100AD600020404B9080104A2D5200602500104202C
:100AE60002689202B53A005034C0E07F2030031904
:100AF6007F30A20272067205500F120B23C202C289
:100B060006C205C2087F30800F300503E9C0E01237
:100B1600076C300503D0E0F9D0E0B53ACC300517C4
:100B26007F30B9100C12076C7F583004077F78802D
:100B360003B9080312076C3002057F2D02076C7F8C
:100B4600202008F87F2B2006F322920280CF7F0018
:100B5600B4070050052431F8E6FF22286E756C6C48
:100B66002900D2011207313001F8C201783A30D596
:100B76000108F60207D72D504349581207312403BE
:100B8600B405004001E4900B7C9312075D743A12A1
:0A0B9600075DD203753A040209A9B5
:10017B00E9D2E7C933E833F892D5EDD2E7CD33ECCA
:07018B0033FC5002B2D52243
:10019200EC30E7100FBF000C0EBE00080DBD0004CE
:1001A2000BEB6014A2D5EB13FCED92E7FD2274FF7A
:1001B200FCFDFEFF22E480F8A2D574FF13FC7D80D3
:0301C200E480EFE7
:1001C500F920E72824F950037907E4F42402FB1801
:1001D500DBFDE624FB5014E9600DE4F618E604F6B1
:0F01E500B40A08E4F6D9F57401F60A22C2D5224D
:1001F400ED33EC3392D5FA602AB4FF33EDC2E77BDA
:10020400FF60067A027919E4227A02792220D50461
:100214007A02791D224E614E002B494E46002D492B
:100224004E4600E47A08F608DAFC7B00740722E8FC
:10023400C0E0ECC0E0EDC0E0EEC0E0EFC0E0EA7585
:10024400F010A4CAABF075F04DA42BFBE435F0FC20
:10025400EA2410FAEB34C5FBEC34D9FCEDC2E7FF19
:1002640075F056A4F42411C5F0F434C58FF0A42A13
:10027400E5F03BE43CF620E714120525D0E0FFD07E
:10028400E0FED0E0FDD0E0FC1200698014F404121A
:100294000525D0E0FFD0E0FED0E0FDD0E0FC120365
:1002A400EFD0E0F8E6FAEDD2E7CD33EC332482FB6D
:1002B400E4C3CF33CFCE33CECD33CD33DBF37B07A3
:1002C40075F00A846004F6081B0AE5F0F6088FF05E
:1002D400740AA4FFACF08EF0740AA42CFEACF050A7
:1002E400010C8DF0740AA42CFDE435F0F608DBDE75
:0302F4007407226A
:1002F7000201B0E86480F8E933E83360110460F084
:10030700ED33EC337009E8FCE9FDEAFEEBFF22046C
:1003170060DED3EB9FEA9EE99DE8C2E78CF0C2F767
:1003270095F0400CE8CCF8E9CDF9EACEFAEBCFFB33
:1003370012017B85D0F05804700320D5B3E8047010
:10034700075002B2D50201BA92D5EC0460F7E4CCAB
:10035700C0E0C398F8603B94186008400DD0E0FBFC
:10036700020192E4FBFAC9FC8028E830E406E4C9FC
:10037700FBE4CAFCE830E305E4C9CACBFCE8540750
:100387006010F8C3E913F9EA13FAEB13FBEC13FC5B
:10039700D8F130F52FC3E49CFCEF9BFFEE9AFEEDFE
:1003A70099FDD0E0FBEF4E4D4C701222DB030201AA
:1003B700B7EC2CFCEF33FFEE33FEED33FDED30E70A
:1003C700EB020192EF2BFFEE3AFEED39FDD0E0FB99
:1003D70050130BBB00030201BAED13FDEE13FEEF42
:0803E70013FFEC13FC0201926C
:1003EF00EC4D6011E8497017ED33EC3304600DE408
:1003FF00FCFFFEFD22E933E8330470F80201B0126E
:10040F00017B58046009E4CC24815006285009026E
:10041F0001BA2840030201B7C0E0EB4A7044B9802B
:10042F0006D0E0FB0201A6EF4E701CBD8008EBFF6B
:10043F00EAFEE9FD80EBE98DF0A4FEE5F00204D8B9
:10044F00E9CDF9EAFEEBFFEF89F0A4FCE5F0CE89E8
:10045F00F0A42EFFE435F0CD89F0A42DFEE435F0A5
:10046F008067EF4E7005BD80D780C3EF8BF0A4ACD3
:10047F00F0EE8BF0A42CFCE435F0F8EF8AF0A42C0E
:10048F00E5F038FCE433CB8DF0A42CFCE5F03BF821
:10049F00EE8AF0A42CFCE5F038F8E433CF89F0A411
:1004AF002CFCE5F038CF3400CE89F0A42FFFE5F017
:1004BF003EFEE433C98DF0A42EFEE5F039CD8AF06F
:1004CF00A42FFFE5F03EFEE43DFD33D0E0FB5007E7
:1004DF000BBB000F0201BAEC2CFCEF33FFEE33FE27
:0604EF00ED33FD02019255
:1004F5003F8000004120000042C80000447A00000F
:10050500461C400047C35000497424004B18968090
:100515004CBEBC205A0E1BCA6753C21C749DC5AE87
:10052500FB60065407601C2323120553EB54386007
:100535000912053F12054E1203EFECF8EDF9EEFA3C
:10054500EFCB22EB12054E80F1543803241C9004A6
:10055500F5FE93FC0EEE93FD0EEE930ECE93FF2269
:100E7100021200E493A3F8E493A34003F68001F285
:100E810008DFF48029E493A3F85407240CC8C33382
:100E9100C4540F4420C8834004F456800146F6DF51
:100EA100E4800B01020408102040809013CBE47E03
:100EB100019360BCA3FF543F30E509541FFEE49346
:100EC100A360010ECF54C025E060A840B8E493A30D
:100ED100FAE493A3F8E493A3C8C582C8CAC583CA38
:100EE100F0A3C8C582C8CAC583CADFE9DEE780BEF0
:0113D9000013
:10056500BB010689828A83E0225002E722BBFE0294
:09057500E32289828A83E49322C7
:10057E00BB010CE58229F582E5833AF583E0225032
:10058E0006E92582F8E622BBFE06E92582F8E2227C
:0D059E00E58229F582E5833AF583E4932296
:1005AB00BB010689828A83F0225002F722BBFE012F
:0205BB00F32229
:1005BD0075F008758200EF2FFFEE33FECD33CDCCF5
:1005CD0033CCC58233C5829BED9AEC99E582984078
:1005DD000CF582EE9BFEED9AFDEC99FC0FD5F0D655
:1005ED00E4CEFBE4CDFAE4CCF9A88222B800C1B97F
:1005FD000059BA002DEC8BF084CFCECDFCE5F0CBBD
:10060D00F97818EF2FFFEE33FEED33FDEC33FCEBF5
:10061D0033FB10D703994004EB99FB0FD8E5E4F9B0
:10062D00FA227818EF2FFFEE33FEED33FDEC33FC9D
:10063D00C933C910D7059BE99A4007EC9BFCE99A91
:10064D00F90FD8E0E4C9FAE4CCFB2275F010EF2FD6
:10065D00FFEE33FEED33FDCC33CCC833C810D707D6
:10066D009BEC9AE899400AED9BFDEC9AFCE899F811
:0E067D000FD5F0DAE4CDFBE4CCFAE4C8F922A4
:0E068B00C3E49FFFE49EFEE49DFDE49CFC2280
:10069900EB9FF5F0EA9E42F0E99D42F0E89C45F0B7
:0106A900222E
:1006AA00E8600FECC313FCED13FDEE13FEEF13FF2E
:0306BA00D8F12252
:0C06BD00E6FC08E6FD08E6FE08E6FF2269
:0D06C900E6FB08E6F908E6FA08E6CBF822A1
:0C06D600ECF608EDF608EEF608EFF62250
:1006E200D083D082E493F608740193F608740293DF
:0906F200F608740393F674047316
:1006FB00FAE6FB0808E6F925F0F618E6CA3AF62200
:10070B00D083D082F8E4937012740193700DA3A37D
:10071B0093F8740193F5828883E473740293686091
:06072B00EFA3A3A380DF91
:10132000EFB40A07740D12132B740A309811A899A0
:10133000B8130CC2983098FDA899C298B811F6302D
:0713400099FDC299F5992205
:00000001FF
