:1007D400E4F522F5237F0212051D120BB875DEFF26
:1007E40043DF4053DF7F43DF10538EBF43DF0653A5
:1007F400DFFE43D60143D6027F587E02120D307FBE
:1008040028120D0BA2AF9209C2AF75C7AA75C755BE
:1008140043F901A20992AFE4F522F523C3E5239439
:1008240058E5226480948250EEAF23AE22120D3B31
:100834007F057E007D007C00120B220523E52370DA
:0508440002052280D72F
:01084900228C
:100D0B00A2AF9209C2AF75C7AA75C7558FFAA209D0
:030D1B0092AF2272
:100BB80053B3FE43B40153B3FD43B40253B1FB43F3
:100BC800B20453B1F743B20853B1DF43B22053B173
:100BD800BF43B24053B17F43B28053B5BF43B64021
:010BE80022EA
:0B0D3000D2DCEFF5D9EEF5D1D2DF22C6
:090D3B00EFF5DAEEF5D2D2DE226A
:090D4400EFF5DBEEF5D3D2DE225F
:090D4D00EFF5DDEEF5D5D2DE2252
:090D5600EFF5DCEEF5D4D2DE224B
:10051D00EF14606E14700302063914700302067A2C
:10052D001470030205E4240460030206B9A2AF921D
:10053D0009C2AF75C7AA75C755439780A20992AF77
:10054D00A2AF9209C2AF75C7AA75C7555397BFA27F
:10055D000992AFE596548060FAA2AF9209C2AF75C9
:10056D00C7AA75C7555396FBA20992AFA2AF9209C0
:10057D00C2AF75C7AA75C755439602A20992AF02BD
:10058D0006B9A2AF9209C2AF75C7AA75C7555397E1
:10059D007FA20992AFA2AF9209C2AF75C7AA75C764
:1005AD0055439740A20992AFE596544060FAA2AF29
:1005BD009209C2AF75C7AA75C7555396FBA209928A
:1005CD00AFA2AF9209C2AF75C7AA75C755439602C0
:1005DD00A20992AF0206B9A2AF9209C2AF75C7AA1E
:1005ED0075C75553977FA20992AFA2AF9209C2AFBB
:1005FD0075C7AA75C7555397BFA20992AFE5965413
:10060D000860FAA2AF9209C2AF75C7AA75C7555354
:10061D0096FBA20992AFA2AF9209C2AF75C7AA7598
:10062D00C755439602A20992AF0206B9A2AF92092D
:10063D00C2AF75C7AA75C755439720A20992AFE5FA
:10064D0096542060FAA2AF9209C2AF75C7AA75C7BA
:10065D00555396FBA20992AFA2AF9209C2AF75C7CF
:10066D00AA75C7555396FDA20992AF803FA2AF92CE
:10067D0009C2AF75C7AA75C755439710A20992AFA6
:10068D00E596541060FAA2AF9209C2AF75C7AA756C
:10069D00C755439604A20992AFA2AF9209C2AF7596
:1006AD00C7AA75C7555396FDA20992AFE597540198
:0506BD00640160F82259
:100C670075985243892053877F538EEF53C4DFAB68
:100C770007AA06A905A804E4FF7EE1FDFC12039B71
:080C8700EFF404F58DD28E227A
:100BE900759852438920438780538EEF53C4DFABF6
:100BF90007AA06A905A8047F007EC27D017C001210
:0A0C0900039BEFF404F58DD28E2258
:100C130075985243892053877F438E1053C4DFABAB
:100C230007AA06A905A8047F007E8C7D0A7C001212
:0A0C3300039BEFF404F58DD28E222E
:100C3D00759852438920438780438E1053C4DFAB90
:100C4D0007AA06A905A8047F007E187D157C001251
:0A0C5D00039BEFF404F58DD28E2204
:10084A008F1F8E1E8D1D8C1C75985253877F53C423
:10085A00F843C420AB1FAA1EA91DA81C7F007E8CCA
:10086A007D0A7C0012039BC3E49FFFE49EFE740191
:10087A009DFDE49CFC780812043E8FC6AB1FAA1E9D
:10088A00A91DA81C7F007E8C7D0A7C0012039BC3D5
:10089A00E49FFFE49EFE74019DFDE49CFCEFE48F5F
:0508AA00C543C4082253
:1008AF008F2B8E2A8D298C2875985243878053C49D
:1008BF00F843C420AB2BAA2AA929A8287F007E18A9
:1008CF007D157C0012039BC3E49FFFE49EFE740121
:1008DF009DFDE49CFC780812043E8FC6AB2BAA2A20
:1008EF00A929A8287F007E187D157C0012039BC3C1
:1008FF00E49FFFE49EFE74019DFDE49CFCEFE48FFA
:05090F00C543C40822ED
:100977008F2F8E2E8D2D8C2C75F85253C4F8AB2FDC
:10098700AA2EA92DA82C7F007E187D157C001203A6
:100997009BC3E49FFFE49EFE74019DFDE49CFC78ED
:1009A7000812043E8FC6AB2FAA2EA92DA82C7F00B4
:1009B7007E187D157C0012039BC3E49FFFE49EFE17
:0F09C70074019DFDE49CFCEFE48FC543C408223E
:070D5F003098FDAF99C29826
:010D6600226A
:080D6700C2998F993099FD2219
:070D6F0030F8FDAF9AC2F855
:010D7600225A
:080D7700C2F98F9A30F9FD2248
:100D1E00E4F5B1F5B2F5B3F5B4F5B5F5B6F5ACF558
:020D2E00AD22F4
:100CD70075C7AA75C755A2AF9209C2AF75C7AA75DE
:0A0CE700C755439F80A20992AF2277
:040D7F0043B408224F
:06091400E54024F8F54067
:10091A00F812047600000000E47FFF7EFFFDFCA8C9
:10092A004012045DC312042D503CE5402404F81221
:10093A000451E4FAF9F8EF2401FFEA3EFEE93DFD2D
:10094A00E83CFCE5402404F812046AA84012045169
:10095A00E4F8EF2401FFEA3EFEE93DFDE83CFCA88D
:06096A004012046A80B295
:07097000E5402408F54022D8
:100CB600538EF7438901D28CEF4E6012758AEE751A
:100CC6008CFF308DFDC28DEF1F70011E80EAC28C35
:010CD60022FB
:100B22008F278E268D258C24538EF7438901D28CF4
:100B3200E4FFFEFDFCAB27AA26A925A824C31204C4
:100B42002D6025758ACD758CF8308DFDC28D74FFB0
:100B52002527F527E52634FFF526E52534FFF5257B
:0B0B6200E52434FFF52480C8C28C227B
:100B6D008F338E328D318C30538EEF438910D28E70
:100B7D00E4FFFEFDFCAB33AA32A931A830C3120449
:100B8D002D6025758BCD758DF8308FFDC28F74FF5F
:100B9D002533F533E53234FFF532E53134FFF531E8
:0B0BAD00E53034FFF53080C8C28E2216
:100AD4008F378E368D358C3453C9BF53C9DF43C924
:100AE40010D2CAE4FFFEFDFCAB37AA36A935A83400
:100AF400C312042D602575CC6675CDEA30CFFDC2D6
:100B0400CF74FF2537F537E53634FFF536E5353450
:0E0B1400FFF535E53434FFF53480C8C2CA223F
:100A84008F3B8E3A8D398C3875C40243C408E4FF19
:100A9400FEFDFCAB3BAA3AA939A838C312042D6069
:100AA4002B75C56675C6EAE5C45410641070F85316
:100AB400C4EF74FF253BF53BE53A34FFF53AE539DD
:100AC40034FFF539E53834FFF53880C253C4F722D2
:100A2E008F3F8E3E8D3D8C3C538FFB538FFD538FEE
:100A3E00FEE4F586538FDF438F08E4FFFEFDFCAB2B
:100A4E003FAA3EA93DA83CC312042D6025E58F5454
:100A5E0010641070F8538FEF74FF253FF53FE53E9D
:100A6E0034FFF53EE53D34FFF53DE53C34FFF53C06
:060A7E0080C8538FF7222F
:1006C2000A3D3D3D3D3D3D3D3D3D3D3D3D3D3D3D8B
:1006D2003D3D3D3D3D3D3D3D3D3D3D3D3D3D3D3D48
:1006E2003D3D3D3D3D3D3D3D3D3D3D3D3D3D3D3D38
:1006F2003D3D3D3D3D3D3D3D3D3D3D3D3D3D3D3D28
:100702003D3D3D3D3D000A2A2020436F70797269CC
:100712006768742863292032303135204E75766F30
:10072200746F6E20546563686E6F6C6F67792043D7
:100732006F72702E20416C6C20726967687473202E
:1007420072657365727665642E2020000A2A202065
:10075200436F6E7461637420452D4D61696C3A205C
:100762004D6963726F432D38626974406E75766F9E
:10077200746F6E2E636F6D20202020202020202099
:100782002020202020202020202020202020202067
:1007920020000A2A202044656D6F20566572736915
:1007A2006F6E20203A202532642E2532642E2532A7
:1007B20064000A2A202046696E69736865642044D1
:1007C200617465203A202532642E2532642E25324A
:0207D2006400C1
:1009D6007BFF7A0679C21200657BFF7A07790812D7
:1009E60000657BFF7A07794E1200657BFF7A0779EF
:1009F60094750B00750C01E4F50DF50EF50FF51069
:100A06001200657BFF7A0779B4750B07750CDF75E5
:100A16000D00750E05750F007510011200657BFF40
:080A26007A0679C21200652274
:03000000020CF1FE
:100CF100787FE4F6D8FD9000007FFF7E01E4F0A349
:0A0D0100DFFCDEFA7581400207D422
:10035F0075F008758200EF2FFFEE33FECD33CDCC55
:10036F0033CCC58233C5829BED9AEC99E5829840D8
:10037F000CF582EE9BFEED9AFDEC99FC0FD5F0D6B5
:10038F00E4CEFBE4CDFAE4CCF9A88222B800C1B9DF
:10039F000059BA002DEC8BF084CFCECDFCE5F0CB1D
:1003AF00F97818EF2FFFEE33FEED33FDEC33FCEB56
:1003BF0033FB10D703994004EB99FB0FD8E5E4F911
:1003CF00FA227818EF2FFFEE33FEED33FDEC33FCFE
:1003DF00C933C910D7059BE99A4007EC9BFCE99AF2
:1003EF00F90FD8E0E4C9FAE4CCFB2275F010EF2F37
:1003FF00FFEE33FEED33FDCC33CCC833C810D70737
:10040F009BEC9AE899400AED9BFDEC9AFCE899F871
:0E041F000FD5F0DAE4CDFBE4CCFAE4C8F92204
:10042D00EB9FF5F0EA9E42F0E99D42F0E89C45F025
:01043D00229C
:10043E00E8600FECC313FCED13FDEE13FEEF13FF9C
:03044E00D8F122C0
:0C045100E6FC08E6FD08E6FE08E6FF22D7
:0D045D00E6FB08E6F908E6FA08E6CBF8220F
:0C046A00ECF608EDF608EEF608EFF622BE
:10047600D083D082E493F608740193F6087402934D
:09048600F608740393F674047384
:10000300E517240BF8E60517227808300702780B6A
:10001300E475F0011204E702048F2000EB7F2ED277
:10002300008018EF540F2490D43440D4FF30040BD5
:10003300EF24BFB41A0050032461FFE518600215D2
:1000430018051BE51B7002051A30070D7808E475C7
:10005300F0011204E7EF0204D5020C8F7403D207F8
:100063008003E4C207F5178B088A09890AE4F518A7
:10007300F51AF51BE51860077F2012003E80F57521
:1000830019FFC201C200C202C203C205C206C208EE
:1000930012000CFF700D3007057F0012004FAF1BDD
:1000A300AE1A22B4255FC2D5C20412000CFF24D0BD
:1000B300B40A00501A75F00A781830D50508B6FF4F
:1000C3000106C6A426F620D5047002D20380D924E3
:1000D300CFB41A00EF5004C2E5D20402024FD2019A
:1000E30080C6D20080C0D20280BCD2D580BAD205ED
:1000F30080B47F2012003E2002077401B51800402F
:10010300F1120003FF12003E020077D208D20680EC
:1001130095120003FB120003FA120003F94A4B7015
:100123000679207A037BFF20022EE518602A7E00E1
:100133008E827583001204A860060EEE651970F0B6
:10014300C2D5EBC0E0EAC0E0E9C0E0EE120296D00F
:10015300E0F9D0E0FAD0E0FB12048FFF60AAEBC015
:10016300E0EAC0E0E9C0E012003ED0E02401F9D0AB
:10017300E03400FAD0E0FBE5190460DCD519D9803E
:10018300877BFF7A027992D202809C791080027970
:1001930008C206C2088008D2D5790A8004790AC247
:1001A300D5E519047002F519E4FAFDFEFF12000308
:1001B300FC7B08200113120003FD7B1030000A12A0
:1001C3000003FE120003FF7B20EC3382D592D5504F
:1001D30013C3E43000069FFFE49EFEE42001039D69
:1001E300FDE49CFCE4CBF8C201EC700CCFCECDCC8B
:1001F300E824F8F870F38017C3EF33FFEE33FEED16
:1002030033FDEC33FCEB33FB994002FB0FD8E9EBF6
:10021300300105F8D0E0C448B201C0E00AEC4D4E0D
:100223004F78207B0070C2EAB5190040BCC0E012D1
:100233000298D0F0D0E0200104C4C0E0C4B201C0F1
:10024300F0120027D0F0D5F0EB0200771204F7018B
:100253001453018E5800E54C00E14201924F019A7C
:0F02630044019A4900FA4301A0550184460184E1
:100272004501844703405000E92D00ED2E01102B6B
:1002820000F123010E2003292A00A94800000108D9
:100292003F3F3F00790AA2D5200314300509B91067
:1002A200020404B9080104A2D52006025001042068
:1002B20002689202B518005034C0E07F2030031962
:1002C2007F30A20272067205500F1202EFC202C202
:1002D20006C205C2087F30800F300503E9C0E01274
:1002E200003E300503D0E0F9D0E0B518CC30051758
:1002F2007F30B9100C12003E7F583004077F78809F
:1003020003B9080312003E3002057F2D02003E7F32
:10031200202008F87F2B2006F322920280CF286E3D
:10032200756C6C2900D2011200033001F8C2017809
:100332001830D50108F60200A92D50434958120081
:10034200032403B405004001E490033B9312002F01
:0D035200743A12002FD20375180402018EB8
:10048F00BB010689828A83E0225002E722BBFE026B
:09049F00E32289828A83E493229E
:1004A800BB010CE58229F582E5833AF583E0225009
:1004B80006E92582F8E622BBFE06E92582F8E22253
:0D04C800E58229F582E5833AF583E493226D
:1004D500BB010689828A83F0225002F722BBFE0106
:0204E500F32200
:1004E700FAE6FB0808E6F925F0F618E6CA3AF62216
:1004F700D083D082F8E4937012740193700DA3A394
:1005070093F8740193F5828883E4737402936860A7
:06051700EFA3A3A380DFA7
:100C8F00EFB40A07740D120C9A740A309811A899D0
:100C9F00B8130CC2983098FDA899C298B811F630C5
:070CAF0099FDC299F599229D
:00000001FF
