:1007D4000A2A3D3D3D3D3D3D3D3D3D3D3D3D3D3D8B
:1007E4003D3D3D3D3D3D3D3D3D3D3D3D3D3D3D3D35
:1007F4003D3D3D3D3D3D3D3D3D3D3D3D3D3D3D3D25
:100804003D3D3D3D3D3D3D3D3D3D3D3D3D3D3D3D14
:100814003D3D3D3D3D000A2A20204E616D653A2054
:100824004E373645383835204750494F20546F6786
:10083400676C696E672044656D6F20436F64652E35
:10084400000A2A3D3D3D3D3D3D3D3D3D3D3D3D3D57
:100854003D3D3D3D3D3D3D3D3D3D3D3D3D3D3D3DC4
:100864003D3D3D3D3D3D3D3D3D3D3D3D3D3D3D3DB4
:100874003D3D3D3D3D3D3D3D3D3D3D3D3D3D3D3DA4
:080884003D3D3D3D3D3D0A00F4
:10088C00120DC47F807E257D007C00120D20120A83
:10089C00C07BFF7A0779D41200657BFF7A08791A3E
:1008AC001200657BFF7A087945120065120DC4C2EF
:1008BC00827F787E007D007C00120B6EC2837F1ECF
:1008CC007E007D007C00120C0C7F3C7E007D007C49
:1008DC0000120BBE7F787E007D007C00120B6E7FB9
:1008EC00017E007D007C00120B18D2827F787E0086
:1008FC007D007C00120B6ED2837F1E7E007D007CFF
:10090C0000120C0C7F3C7E007D007C00120BBE7F25
:10091C00787E007D007C00120B6E7F017E007D00D6
:08092C007C00120B18808822E8
:10051D00EF14606E14700302063914700302067A2C
:10052D001470030205E4240460030206B9A2AF921D
:10053D0009C2AF75C7AA75C755439780A20992AF77
:10054D00A2AF9209C2AF75C7AA75C7555397BFA27F
:10055D000992AFE596548060FAA2AF9209C2AF75C9
:10056D00C7AA75C7555396FBA20992AFA2AF9209C0
:10057D00C2AF75C7AA75C755439602A20992AF02BD
:10058D0006B9A2AF9209C2AF75C7AA75C7555397E1
:10059D007FA20992AFA2AF9209C2AF75C7AA75C764
:1005AD0055439740A20992AFE596544060FAA2AF29
:1005BD009209C2AF75C7AA75C7555396FBA209928A
:1005CD00AFA2AF9209C2AF75C7AA75C755439602C0
:1005DD00A20992AF0206B9A2AF9209C2AF75C7AA1E
:1005ED0075C75553977FA20992AFA2AF9209C2AFBB
:1005FD0075C7AA75C7555397BFA20992AFE5965413
:10060D000860FAA2AF9209C2AF75C7AA75C7555354
:10061D0096FBA20992AFA2AF9209C2AF75C7AA7598
:10062D00C755439602A20992AF0206B9A2AF92092D
:10063D00C2AF75C7AA75C755439720A20992AFE5FA
:10064D0096542060FAA2AF9209C2AF75C7AA75C7BA
:10065D00555396FBA20992AFA2AF9209C2AF75C7CF
:10066D00AA75C7555396FDA20992AF803FA2AF92CE
:10067D0009C2AF75C7AA75C755439710A20992AFA6
:10068D00E596541060FAA2AF9209C2AF75C7AA756C
:10069D00C755439604A20992AFA2AF9209C2AF7596
:1006AD00C7AA75C7555396FDA20992AFE597540198
:0506BD00640160F82259
:100D200075985243892053877F538EEF53C4DFABAE
:100D300007AA06A905A804E4FF7EE1FDFC12039BB7
:080D4000EFF404F58DD28E22C0
:100CA200759852438920438780538EEF53C4DFAB3C
:100CB20007AA06A905A8047F007EC27D017C001256
:0A0CC200039BEFF404F58DD28E229F
:100CCC0075985243892053877F438E1053C4DFABF2
:100CDC0007AA06A905A8047F007E8C7D0A7C001259
:0A0CEC00039BEFF404F58DD28E2275
:100CF600759852438920438780438E1053C4DFABD7
:100D060007AA06A905A8047F007E187D157C001297
:0A0D1600039BEFF404F58DD28E224A
:100934008F1F8E1E8D1D8C1C75985253877F53C438
:10094400F843C420AB1FAA1EA91DA81C7F007E8CDF
:100954007D0A7C0012039BC3E49FFFE49EFE7401A6
:100964009DFDE49CFC780812043E8FC6AB1FAA1EB2
:10097400A91DA81C7F007E8C7D0A7C0012039BC3EA
:10098400E49FFFE49EFE74019DFDE49CFCEFE48F74
:05099400C543C4082268
:100999008F258E248D238C2275985243878053C4CA
:1009A900F843C420AB25AA24A923A8227F007E18D6
:1009B9007D157C0012039BC3E49FFFE49EFE740136
:1009C9009DFDE49CFC780812043E8FC6AB25AA2441
:1009D900A923A8227F007E187D157C0012039BC3E2
:1009E900E49FFFE49EFE74019DFDE49CFCEFE48F0F
:0509F900C543C4082203
:100A61008F298E288D278C2675F85253C4F8AB290F
:100A7100AA28A927A8267F007E187D157C001203CD
:100A81009BC3E49FFFE49EFE74019DFDE49CFC7802
:100A91000812043E8FC6AB29AA28A927A8267F00E1
:100AA1007E187D157C0012039BC3E49FFFE49EFE2C
:0F0AB10074019DFDE49CFCEFE48FC543C4082253
:070DD6003098FDAF99C298AF
:010DDD0022F3
:080DDE00C2998F993099FD22A2
:070DE60030F8FDAF9AC2F8DE
:010DED0022E3
:080DEE00C2F98F9A30F9FD22D1
:100DC400E4F5B1F5B2F5B3F5B4F5B5F5B6F5ACF5B2
:020DD400AD224E
:100D900075C7AA75C755A2AF9209C2AF75C7AA7524
:0A0DA000C755439F80A20992AF22BD
:040DF60043B40822D8
:0609FE00E52E24F8F52EA1
:100A0400F812047600000000E47FFF7EFFFDFCA8DE
:100A14002E12045DC312042D503CE52E2404F8125A
:100A24000451E4FAF9F8EF2401FFEA3EFEE93DFD42
:100A3400E83CFCE52E2404F812046AA82E120451A2
:100A4400E4F8EF2401FFEA3EFEE93DFDE83CFCA8A2
:060A54002E12046A80B2BC
:070A5A00E52E2408F52E2211
:100D6F00538EF7438901D28CEF4E6012758AEE7560
:100D7F008CFF308DFDC28DEF1F70011E80EAC28C7B
:010D8F002241
:100C0C008F0B8E0A8D098C08538EF7438901D28C79
:100C1C00E4FFFEFDFCAB0BAA0AA909A808C3120449
:100C2C002D6025758ACD758CF8308DFDC28D74FFC5
:100C3C00250BF50BE50A34FFF50AE50934FFF50938
:0B0C4C00E50834FFF50880C8C28C22C8
:100C57008F2D8E2C8D2B8C2A538EEF438910D28E9D
:100C6700E4FFFEFDFCAB2DAA2CA92BA82AC3120476
:100C77002D6025758BCD758DF8308FFDC28F74FF74
:100C8700252DF52DE52C34FFF52CE52B34FFF52B21
:0B0C9700E52A34FFF52A80C8C28E2237
:100BBE008F0B8E0A8D098C0853C9BF53C9DF43C9E9
:100BCE0010D2CAE4FFFEFDFCAB0BAA0AA909A808C5
:100BDE00C312042D602575CC6675CDEA30CFFDC2EB
:100BEE00CF74FF250BF50BE50A34FFF50AE5093442
:0E0BFE00FFF509E50834FFF50880C8C2CA22D9
:100B6E008F0B8E0A8D098C0875C40243C408E4FFEE
:100B7E00FEFDFCAB0BAA0AA909A808C312042D603E
:100B8E002B75C56675C6EAE5C45410641070F8532B
:100B9E00C4EF74FF250BF50BE50A34FFF50AE509E2
:100BAE0034FFF509E50834FFF50880C253C4F72277
:100B18008F0B8E0A8D098C08538FFB538FFD538FD3
:100B2800FEE4F586538FDF438F08E4FFFEFDFCAB40
:100B38000BAA0AA909A808C312042D6025E58F5439
:100B480010641070F8538FEF74FF250BF50BE50A4E
:100B580034FFF50AE50934FFF509E50834FFF5081F
:060B680080C8538FF72244
:1006C2000A3D3D3D3D3D3D3D3D3D3D3D3D3D3D3D8B
:1006D2003D3D3D3D3D3D3D3D3D3D3D3D3D3D3D3D48
:1006E2003D3D3D3D3D3D3D3D3D3D3D3D3D3D3D3D38
:1006F2003D3D3D3D3D3D3D3D3D3D3D3D3D3D3D3D28
:100702003D3D3D3D3D000A2A2020436F70797269CC
:100712006768742863292032303135204E75766F30
:10072200746F6E20546563686E6F6C6F67792043D7
:100732006F72702E20416C6C20726967687473202E
:1007420072657365727665642E2020000A2A202065
:10075200436F6E7461637420452D4D61696C3A205C
:100762004D6963726F432D38626974406E75766F9E
:10077200746F6E2E636F6D20202020202020202099
:100782002020202020202020202020202020202067
:1007920020000A2A202044656D6F20566572736915
:1007A2006F6E20203A202532642E2532642E2532A7
:1007B20064000A2A202046696E69736865642044D1
:1007C200617465203A202532642E2532642E25324A
:0207D2006400C1
:100AC0007BFF7A0679C21200657BFF7A07790812EC
:100AD00000657BFF7A07794E1200657BFF7A077904
:100AE00094750B00750C01E4F50DF50EF50FF5107E
:100AF0001200657BFF7A0779B4750B07750CDF75FB
:100B00000D00750E05750F007510011200657BFF55
:080B10007A0679C21200652289
:03000000020DAA44
:100DAA00787FE4F6D8FD9000007FFF7E01E4F0A38F
:0A0DBA00DFFCDEFA75812E02088CC2
:10035F0075F008758200EF2FFFEE33FECD33CDCC55
:10036F0033CCC58233C5829BED9AEC99E5829840D8
:10037F000CF582EE9BFEED9AFDEC99FC0FD5F0D6B5
:10038F00E4CEFBE4CDFAE4CCF9A88222B800C1B9DF
:10039F000059BA002DEC8BF084CFCECDFCE5F0CB1D
:1003AF00F97818EF2FFFEE33FEED33FDEC33FCEB56
:1003BF0033FB10D703994004EB99FB0FD8E5E4F911
:1003CF00FA227818EF2FFFEE33FEED33FDEC33FCFE
:1003DF00C933C910D7059BE99A4007EC9BFCE99AF2
:1003EF00F90FD8E0E4C9FAE4CCFB2275F010EF2F37
:1003FF00FFEE33FEED33FDCC33CCC833C810D70737
:10040F009BEC9AE899400AED9BFDEC9AFCE899F871
:0E041F000FD5F0DAE4CDFBE4CCFAE4C8F92204
:10042D00EB9FF5F0EA9E42F0E99D42F0E89C45F025
:01043D00229C
:10043E00E8600FECC313FCED13FDEE13FEEF13FF9C
:03044E00D8F122C0
:0C045100E6FC08E6FD08E6FE08E6FF22D7
:0D045D00E6FB08E6F908E6FA08E6CBF8220F
:0C046A00ECF608EDF608EEF608EFF622BE
:10047600D083D082E493F608740193F6087402934D
:09048600F608740393F674047384
:10000300E517240BF8E60517227808300702780B6A
:10001300E475F0011204E702048F2000EB7F2ED277
:10002300008018EF540F2490D43440D4FF30040BD5
:10003300EF24BFB41A0050032461FFE518600215D2
:1000430018051BE51B7002051A30070D7808E475C7
:10005300F0011204E7EF0204D5020D487403D2073E
:100063008003E4C207F5178B088A09890AE4F518A7
:10007300F51AF51BE51860077F2012003E80F57521
:1000830019FFC201C200C202C203C205C206C208EE
:1000930012000CFF700D3007057F0012004FAF1BDD
:1000A300AE1A22B4255FC2D5C20412000CFF24D0BD
:1000B300B40A00501A75F00A781830D50508B6FF4F
:1000C3000106C6A426F620D5047002D20380D924E3
:1000D300CFB41A00EF5004C2E5D20402024FD2019A
:1000E30080C6D20080C0D20280BCD2D580BAD205ED
:1000F30080B47F2012003E2002077401B51800402F
:10010300F1120003FF12003E020077D208D20680EC
:1001130095120003FB120003FA120003F94A4B7015
:100123000679207A037BFF20022EE518602A7E00E1
:100133008E827583001204A860060EEE651970F0B6
:10014300C2D5EBC0E0EAC0E0E9C0E0EE120296D00F
:10015300E0F9D0E0FAD0E0FB12048FFF60AAEBC015
:10016300E0EAC0E0E9C0E012003ED0E02401F9D0AB
:10017300E03400FAD0E0FBE5190460DCD519D9803E
:10018300877BFF7A027992D202809C791080027970
:1001930008C206C2088008D2D5790A8004790AC247
:1001A300D5E519047002F519E4FAFDFEFF12000308
:1001B300FC7B08200113120003FD7B1030000A12A0
:1001C3000003FE120003FF7B20EC3382D592D5504F
:1001D30013C3E43000069FFFE49EFEE42001039D69
:1001E300FDE49CFCE4CBF8C201EC700CCFCECDCC8B
:1001F300E824F8F870F38017C3EF33FFEE33FEED16
:1002030033FDEC33FCEB33FB994002FB0FD8E9EBF6
:10021300300105F8D0E0C448B201C0E00AEC4D4E0D
:100223004F78207B0070C2EAB5190040BCC0E012D1
:100233000298D0F0D0E0200104C4C0E0C4B201C0F1
:10024300F0120027D0F0D5F0EB0200771204F7018B
:100253001453018E5800E54C00E14201924F019A7C
:0F02630044019A4900FA4301A0550184460184E1
:100272004501844703405000E92D00ED2E01102B6B
:1002820000F123010E2003292A00A94800000108D9
:100292003F3F3F00790AA2D5200314300509B91067
:1002A200020404B9080104A2D52006025001042068
:1002B20002689202B518005034C0E07F2030031962
:1002C2007F30A20272067205500F1202EFC202C202
:1002D20006C205C2087F30800F300503E9C0E01274
:1002E200003E300503D0E0F9D0E0B518CC30051758
:1002F2007F30B9100C12003E7F583004077F78809F
:1003020003B9080312003E3002057F2D02003E7F32
:10031200202008F87F2B2006F322920280CF286E3D
:10032200756C6C2900D2011200033001F8C2017809
:100332001830D50108F60200A92D50434958120081
:10034200032403B405004001E490033B9312002F01
:0D035200743A12002FD20375180402018EB8
:10048F00BB010689828A83E0225002E722BBFE026B
:09049F00E32289828A83E493229E
:1004A800BB010CE58229F582E5833AF583E0225009
:1004B80006E92582F8E622BBFE06E92582F8E22253
:0D04C800E58229F582E5833AF583E493226D
:1004D500BB010689828A83F0225002F722BBFE0106
:0204E500F32200
:1004E700FAE6FB0808E6F925F0F618E6CA3AF62216
:1004F700D083D082F8E4937012740193700DA3A394
:1005070093F8740193F5828883E4737402936860A7
:06051700EFA3A3A380DFA7
:100D4800EFB40A07740D120D53740A309811A8995C
:100D5800B8130CC2983098FDA899C298B811F6300B
:070D680099FDC299F59922E3
:00000001FF
