:100D9D005374617274204932430D0A0056616C75AB
:080DAD0065203D2025780A00B5
:10090100E4F50853B1F753B2F753B5FE53B6FE53AE
:10091100B1EF43B2107F0212051D7F807E257D005D
:100921007C00120C62D2997BFF7A0D799D120065D1
:10093100120DB57DC8E4FF120D4FE4FF120C8A8F32
:1009410008EF64C87002B2847BFF7A0D79A985082B
:100951000C1200657FE87E037D007C00120B0E8087
:01096100D9BC
:010962002272
:100D4F008F098D0A120D177FA0120CF9AF09120C23
:0A0D5F00F9AF0A120CF9120D33224D
:020C8A008F09D0
:100C8C00E4F50A120D177FA0120CF9AF09120CF93A
:100C9C00120D177FA1120CF97F01120BA48F0A12EF
:040CAC000D33AF0A4B
:010CB0002221
:100DB50043B50843B60843B14043B24075BE37D288
:020DC500C62244
:100D17007FE87E03D2C5C2C320C310D3EF9400EE91
:0B0D270094004007EF1F70011E80EDDC
:010D3200229E
:100D33007FE87E03C2C3D2C430C410D3EF9400EE65
:0B0D430094004007EF1F70011E80EDC0
:010D4E002282
:100BA4007DE87C03E4FED2C2C2C320C310D3ED941B
:100BB40000EC94004007ED1D70011C80EDAEBCEF0D
:100BC400640170197C037DE8C2C220C310D3ED9484
:0F0BD40000EC94004007ED1D70011C80EDAF0692
:010BE30022EF
:100CF9007DE87C038FBCC2C5C2C320C310D3ED9469
:0D0D090000EC94004007ED1D70011C80ED12
:010D160022BA
:10051D00EF14606E14700302063914700302067A2C
:10052D001470030205E4240460030206B9A2AF921D
:10053D0009C2AF75C7AA75C755439780A20992AF77
:10054D00A2AF9209C2AF75C7AA75C7555397BFA27F
:10055D000992AFE596548060FAA2AF9209C2AF75C9
:10056D00C7AA75C7555396FBA20992AFA2AF9209C0
:10057D00C2AF75C7AA75C755439602A20992AF02BD
:10058D0006B9A2AF9209C2AF75C7AA75C7555397E1
:10059D007FA20992AFA2AF9209C2AF75C7AA75C764
:1005AD0055439740A20992AFE596544060FAA2AF29
:1005BD009209C2AF75C7AA75C7555396FBA209928A
:1005CD00AFA2AF9209C2AF75C7AA75C755439602C0
:1005DD00A20992AF0206B9A2AF9209C2AF75C7AA1E
:1005ED0075C75553977FA20992AFA2AF9209C2AFBB
:1005FD0075C7AA75C7555397BFA20992AFE5965413
:10060D000860FAA2AF9209C2AF75C7AA75C7555354
:10061D0096FBA20992AFA2AF9209C2AF75C7AA7598
:10062D00C755439602A20992AF0206B9A2AF92092D
:10063D00C2AF75C7AA75C755439720A20992AFE5FA
:10064D0096542060FAA2AF9209C2AF75C7AA75C7BA
:10065D00555396FBA20992AFA2AF9209C2AF75C7CF
:10066D00AA75C7555396FDA20992AF803FA2AF92CE
:10067D0009C2AF75C7AA75C755439710A20992AFA6
:10068D00E596541060FAA2AF9209C2AF75C7AA756C
:10069D00C755439604A20992AFA2AF9209C2AF7596
:1006AD00C7AA75C7555396FDA20992AFE597540198
:0506BD00640160F82259
:100C620075985243892053877F538EEF53C4DFAB6D
:100C720007AA06A905A804E4FF7EE1FDFC12039B76
:080C8200EFF404F58DD28E227F
:100BE400759852438920438780538EEF53C4DFABFB
:100BF40007AA06A905A8047F007EC27D017C001215
:0A0C0400039BEFF404F58DD28E225D
:100C0E0075985243892053877F438E1053C4DFABB0
:100C1E0007AA06A905A8047F007E8C7D0A7C001217
:0A0C2E00039BEFF404F58DD28E2233
:100C3800759852438920438780438E1053C4DFAB95
:100C480007AA06A905A8047F007E187D157C001256
:0A0C5800039BEFF404F58DD28E2209
:1007D4008F258E248D238C2275985253877F53C482
:1007E400F843C420AB25AA24A923A8227F007E8C29
:1007F4007D0A7C0012039BC3E49FFFE49EFE740108
:100804009DFDE49CFC780812043E8FC6AB25AA2407
:10081400A923A8227F007E8C7D0A7C0012039BC33F
:10082400E49FFFE49EFE74019DFDE49CFCEFE48FD5
:05083400C543C40822C9
:100839008F298E288D278C2675985243878053C41B
:10084900F843C420AB29AA28A927A8267F007E1827
:100859007D157C0012039BC3E49FFFE49EFE740197
:100869009DFDE49CFC780812043E8FC6AB29AA289A
:10087900A927A8267F007E187D157C0012039BC33B
:10088900E49FFFE49EFE74019DFDE49CFCEFE48F70
:05089900C543C4082264
:100963008F2D8E2C8D2B8C2A75F85253C4F8AB2DFA
:10097300AA2CA92BA82A7F007E187D157C001203C0
:100983009BC3E49FFFE49EFE74019DFDE49CFC7801
:100993000812043E8FC6AB2DAA2CA92BA82A7F00D0
:1009A3007E187D157C0012039BC3E49FFFE49EFE2B
:0F09B30074019DFDE49CFCEFE48FC543C4082252
:070DD9003098FDAF99C298AC
:010DE00022F0
:080DE100C2998F993099FD229F
:070DE90030F8FDAF9AC2F8DB
:010DF00022E0
:080DF100C2F98F9A30F9FD22CE
:100DC700E4F5B1F5B2F5B3F5B4F5B5F5B6F5ACF5AF
:020DD700AD224B
:100D690075C7AA75C755A2AF9209C2AF75C7AA754B
:0A0D7900C755439F80A20992AF22E4
:040DF90043B40822D5
:06089E00E51D24F8F51D24
:1008A400F812047600000000E47FFF7EFFFDFCA840
:1008B4001D12045DC312042D503CE51D2404F812DE
:1008C4000451E4FAF9F8EF2401FFEA3EFEE93DFDA4
:1008D400E83CFCE51D2404F812046AA81D12045126
:1008E400E4F8EF2401FFEA3EFEE93DFDE83CFCA804
:0608F4001D12046A80B22F
:0708FA00E51D2408F51D2295
:100CD800538EF7438901D28CEF4E6012758AEE75F8
:100CE8008CFF308DFDC28DEF1F70011E80EAC28C13
:010CF80022D9
:100B0E008F0C8E0B8D0A8C09538EF7438901D28C74
:100B1E00E4FFFEFDFCAB0CAA0BA90AA809C3120444
:100B2E002D6025758ACD758CF8308DFDC28D74FFC4
:100B3E00250CF50CE50B34FFF50BE50A34FFF50A31
:0B0B4E00E50934FFF50980C8C28C22C5
:100B59008F318E308D2F8C2E538EEF438910D28E8C
:100B6900E4FFFEFDFCAB31AA30A92FA82EC3120465
:100B79002D6025758BCD758DF8308FFDC28F74FF73
:100B89002531F531E53034FFF530E52F34FFF52F08
:0B0B9900E52E34FFF52E80C8C28E222E
:100AC0008F358E348D338C3253C9BF53C9DF43C940
:100AD00010D2CAE4FFFEFDFCAB35AA34A933A8321C
:100AE000C312042D602575CC6675CDEA30CFFDC2EA
:100AF000CF74FF2535F535E53434FFF534E533346F
:0E0B0000FFF533E53234FFF53280C8C2CA2259
:100A70008F398E388D378C3675C40243C408E4FF35
:100A8000FEFDFCAB39AA38A937A836C312042D6085
:100A90002B75C56675C6EAE5C45410641070F8532A
:100AA000C4EF74FF2539F539E53834FFF538E537FB
:100AB00034FFF537E53634FFF53680C253C4F722EC
:100A1A008F3D8E3C8D3B8C3A538FFB538FFD538F0A
:100A2A00FEE4F586538FDF438F08E4FFFEFDFCAB3F
:100A3A003DAA3CA93BA83AC312042D6025E58F5470
:100A4A0010641070F8538FEF74FF253DF53DE53CB7
:100A5A0034FFF53CE53B34FFF53BE53A34FFF53A24
:060A6A0080C8538FF72243
:1006C2000A3D3D3D3D3D3D3D3D3D3D3D3D3D3D3D8B
:1006D2003D3D3D3D3D3D3D3D3D3D3D3D3D3D3D3D48
:1006E2003D3D3D3D3D3D3D3D3D3D3D3D3D3D3D3D38
:1006F2003D3D3D3D3D3D3D3D3D3D3D3D3D3D3D3D28
:100702003D3D3D3D3D000A2A2020436F70797269CC
:100712006768742863292032303135204E75766F30
:10072200746F6E20546563686E6F6C6F67792043D7
:100732006F72702E20416C6C20726967687473202E
:1007420072657365727665642E2020000A2A202065
:10075200436F6E7461637420452D4D61696C3A205C
:100762004D6963726F432D38626974406E75766F9E
:10077200746F6E2E636F6D20202020202020202099
:100782002020202020202020202020202020202067
:1007920020000A2A202044656D6F20566572736915
:1007A2006F6E20203A202532642E2532642E2532A7
:1007B20064000A2A202046696E69736865642044D1
:1007C200617465203A202532642E2532642E25324A
:0207D2006400C1
:1009C2007BFF7A0679C21200657BFF7A07790812EB
:1009D20000657BFF7A07794E1200657BFF7A077903
:1009E20094750C00750D01E4F50EF50FF510F51177
:1009F2001200657BFF7A0779B4750C07750DDF75F8
:100A02000E00750F057510007511011200657BFF50
:080A12007A0679C21200652288
:03000000020D836B
:100D8300787FE4F6D8FD9000007FFF7E01E4F0A3B6
:0A0D9300DFFCDEFA75813D02090164
:10035F0075F008758200EF2FFFEE33FECD33CDCC55
:10036F0033CCC58233C5829BED9AEC99E5829840D8
:10037F000CF582EE9BFEED9AFDEC99FC0FD5F0D6B5
:10038F00E4CEFBE4CDFAE4CCF9A88222B800C1B9DF
:10039F000059BA002DEC8BF084CFCECDFCE5F0CB1D
:1003AF00F97818EF2FFFEE33FEED33FDEC33FCEB56
:1003BF0033FB10D703994004EB99FB0FD8E5E4F911
:1003CF00FA227818EF2FFFEE33FEED33FDEC33FCFE
:1003DF00C933C910D7059BE99A4007EC9BFCE99AF2
:1003EF00F90FD8E0E4C9FAE4CCFB2275F010EF2F37
:1003FF00FFEE33FEED33FDCC33CCC833C810D70737
:10040F009BEC9AE899400AED9BFDEC9AFCE899F871
:0E041F000FD5F0DAE4CDFBE4CCFAE4C8F92204
:10042D00EB9FF5F0EA9E42F0E99D42F0E89C45F025
:01043D00229C
:10043E00E8600FECC313FCED13FDEE13FEEF13FF9C
:03044E00D8F122C0
:0C045100E6FC08E6FD08E6FE08E6FF22D7
:0D045D00E6FB08E6F908E6FA08E6CBF8220F
:0C046A00ECF608EDF608EEF608EFF622BE
:10047600D083D082E493F608740193F6087402934D
:09048600F608740393F674047384
:10000300E518240CF8E60518227809300702780C65
:10001300E475F0011204E702048F2000EB7F2ED277
:10002300008018EF540F2490D43440D4FF30040BD5
:10003300EF24BFB41A0050032461FFE519600215D1
:1000430019051CE51C7002051B30070D7809E475C2
:10005300F0011204E7EF0204D5020CB17403D207D6
:100063008003E4C207F5188B098A0A890BE4F519A2
:10007300F51BF51CE51960077F2012003E80F5751E
:100083001AFFC201C200C202C203C205C206C208ED
:1000930012000CFF700D3007057F0012004FAF1CDC
:1000A300AE1B22B4255FC2D5C20412000CFF24D0BC
:1000B300B40A00501A75F00A781930D50508B6FF4E
:1000C3000106C6A426F620D5047002D20380D924E3
:1000D300CFB41A00EF5004C2E5D20402024FD2019A
:1000E30080C6D20080C0D20280BCD2D580BAD205ED
:1000F30080B47F2012003E2002077401B51900402E
:10010300F1120003FF12003E020077D208D20680EC
:1001130095120003FB120003FA120003F94A4B7015
:100123000679207A037BFF20022EE519602A7E00E0
:100133008E827583001204A860060EEE651A70F0B5
:10014300C2D5EBC0E0EAC0E0E9C0E0EE120296D00F
:10015300E0F9D0E0FAD0E0FB12048FFF60AAEBC015
:10016300E0EAC0E0E9C0E012003ED0E02401F9D0AB
:10017300E03400FAD0E0FBE51A0460DCD51AD9803C
:10018300877BFF7A027992D202809C791080027970
:1001930008C206C2088008D2D5790A8004790AC247
:1001A300D5E51A047002F51AE4FAFDFEFF12000306
:1001B300FC7B08200113120003FD7B1030000A12A0
:1001C3000003FE120003FF7B20EC3382D592D5504F
:1001D30013C3E43000069FFFE49EFEE42001039D69
:1001E300FDE49CFCE4CBF8C201EC700CCFCECDCC8B
:1001F300E824F8F870F38017C3EF33FFEE33FEED16
:1002030033FDEC33FCEB33FB994002FB0FD8E9EBF6
:10021300300105F8D0E0C448B201C0E00AEC4D4E0D
:100223004F78207B0070C2EAB51A0040BCC0E012D0
:100233000298D0F0D0E0200104C4C0E0C4B201C0F1
:10024300F0120027D0F0D5F0EB0200771204F7018B
:100253001453018E5800E54C00E14201924F019A7C
:0F02630044019A4900FA4301A0550184460184E1
:100272004501844703405000E92D00ED2E01102B6B
:1002820000F123010E2003292A00A94800000108D9
:100292003F3F3F00790AA2D5200314300509B91067
:1002A200020404B9080104A2D52006025001042068
:1002B20002689202B519005034C0E07F2030031961
:1002C2007F30A20272067205500F1202EFC202C202
:1002D20006C205C2087F30800F300503E9C0E01274
:1002E200003E300503D0E0F9D0E0B519CC30051757
:1002F2007F30B9100C12003E7F583004077F78809F
:1003020003B9080312003E3002057F2D02003E7F32
:10031200202008F87F2B2006F322920280CF286E3D
:10032200756C6C2900D2011200033001F8C2017809
:100332001930D50108F60200A92D50434958120080
:10034200032403B405004001E490033B9312002F01
:0D035200743A12002FD20375190402018EB7
:10048F00BB010689828A83E0225002E722BBFE026B
:09049F00E32289828A83E493229E
:1004A800BB010CE58229F582E5833AF583E0225009
:1004B80006E92582F8E622BBFE06E92582F8E22253
:0D04C800E58229F582E5833AF583E493226D
:1004D500BB010689828A83F0225002F722BBFE0106
:0204E500F32200
:1004E700FAE6FB0808E6F925F0F618E6CA3AF62216
:1004F700D083D082F8E4937012740193700DA3A394
:1005070093F8740193F5828883E4737402936860A7
:06051700EFA3A3A380DFA7
:100CB100EFB40A07740D120CBC740A309811A8998C
:100CC100B8130CC2983098FDA899C298B811F630A3
:070CD10099FDC299F599227B
:00000001FF
