:10000300E4F522F5237F021205A853B1F743B208A2
:1000130053B1EF43B21012007DE4F522F523D3E58B
:10002300239409E522648094805017B2837FC87EAD
:10003300007D007C00120B820523E523700205225C
:1000430080DC438F08438702E4F522F523D3E523BD
:100053009407E522648094805017B2847FF47E0174
:100063007D007C00120B820523E5237002052280AC
:09007300DC438F0843870280A0E2
:01007C002261
:0C007D00758F03E4F586D2AF439C04228B
:03008B00020D2142
:070D2100538FEF538FF732EF
:1005A800EF14606E1470030206C41470030207058A
:1005B80014700302066F24046003020744A2AF927A
:1005C80009C2AF75C7AA75C755439780A20992AFEC
:1005D800A2AF9209C2AF75C7AA75C7555397BFA2F4
:1005E8000992AFE596548060FAA2AF9209C2AF753E
:1005F800C7AA75C7555396FBA20992AFA2AF920935
:10060800C2AF75C7AA75C755439602A20992AF0231
:100618000744A2AF9209C2AF75C7AA75C7555397C9
:100628007FA20992AFA2AF9209C2AF75C7AA75C7D8
:1006380055439740A20992AFE596544060FAA2AF9D
:100648009209C2AF75C7AA75C7555396FBA20992FE
:10065800AFA2AF9209C2AF75C7AA75C75543960234
:10066800A20992AF020744A2AF9209C2AF75C7AA06
:1006780075C75553977FA20992AFA2AF9209C2AF2F
:1006880075C7AA75C7555397BFA20992AFE5965487
:100698000860FAA2AF9209C2AF75C7AA75C75553C9
:1006A80096FBA20992AFA2AF9209C2AF75C7AA750D
:1006B800C755439602A20992AF020744A2AF920916
:1006C800C2AF75C7AA75C755439720A20992AFE56F
:1006D80096542060FAA2AF9209C2AF75C7AA75C72F
:1006E800555396FBA20992AFA2AF9209C2AF75C744
:1006F800AA75C7555396FDA20992AF803FA2AF9243
:1007080009C2AF75C7AA75C755439710A20992AF1A
:10071800E596541060FAA2AF9209C2AF75C7AA75E0
:10072800C755439604A20992AFA2AF9209C2AF750A
:10073800C7AA75C7555396FDA20992AFE59754010C
:05074800640160F822CD
:100C4B0075985243892053877F538EEF53C4DFAB84
:100C5B0007AA06A905A804E4FF7EE1FDFC12042601
:080C6B00EFF404F58DD28E2296
:100BCD00759852438920438780538EEF53C4DFAB12
:100BDD0007AA06A905A8047F007EC27D017C00122C
:0A0BED000426EFF404F58DD28E22E9
:100BF70075985243892053877F438E1053C4DFABC8
:100C070007AA06A905A8047F007E8C7D0A7C00122E
:0A0C17000426EFF404F58DD28E22BE
:100C2100759852438920438780438E1053C4DFABAC
:100C310007AA06A905A8047F007E187D157C00126D
:0A0C41000426EFF404F58DD28E2294
:10085F008F1F8E1E8D1D8C1C75985253877F53C40E
:10086F00F843C420AB1FAA1EA91DA81C7F007E8CB5
:10087F007D0A7C00120426C3E49FFFE49EFE7401F0
:10088F009DFDE49CFC78081204C98FC6AB1FAA1EFD
:10089F00A91DA81C7F007E8C7D0A7C00120426C334
:1008AF00E49FFFE49EFE74019DFDE49CFCEFE48F4A
:0508BF00C543C408223E
:1008C4008F2B8E2A8D298C2875985243878053C488
:1008D400F843C420AB2BAA2AA929A8287F007E1894
:1008E4007D157C00120426C3E49FFFE49EFE740180
:1008F4009DFDE49CFC78081204C98FC6AB2BAA2A80
:10090400A929A8287F007E187D157C00120426C31F
:10091400E49FFFE49EFE74019DFDE49CFCEFE48FE4
:05092400C543C40822D8
:10098C008F2F8E2E8D2D8C2C75F85253C4F8AB2FC7
:10099C00AA2EA92DA82C7F007E187D157C00120490
:1009AC0026C3E49FFFE49EFE74019DFDE49CFC784D
:1009BC00081204C98FC6AB2FAA2EA92DA82C7F0014
:1009CC007E187D157C00120426C3E49FFFE49EFE76
:0F09DC0074019DFDE49CFCEFE48FC543C4082229
:070D01003098FDAF99C29884
:010D080022C8
:080D0900C2998F993099FD2277
:070D110030F8FDAF9AC2F8B3
:010D180022B8
:080D1900C2F98F9A30F9FD22A6
:100CEF00E4F5B1F5B2F5B3F5B4F5B5F5B6F5ACF588
:020CFF00AD2224
:100CBB0075C7AA75C755A2AF9209C2AF75C7AA75FA
:0A0CCB00C755439F80A20992AF2293
:040D280043B40822A6
:06092900E54024F8F54052
:10092F00F812050100000000E47FFF7EFFFDFCA828
:10093F00401204E8C31204B8503CE5402404F812F6
:10094F0004DCE4FAF9F8EF2401FFEA3EFEE93DFD8D
:10095F00E83CFCE5402404F81204F5A8401204DC3E
:10096F00E4F8EF2401FFEA3EFEE93DFDE83CFCA878
:06097F00401204F580B2F5
:07098500E5402408F54022C3
:100C9A00538EF7438901D28CEF4E6012758AEE7536
:100CAA008CFF308DFDC28DEF1F70011E80EAC28C51
:010CBA002217
:100B37008F338E328D318C30538EF7438901D28CAF
:100B4700E4FFFEFDFCAB33AA32A931A830C312047F
:100B5700B86025758ACD758CF8308DFDC28D74FF10
:100B67002533F533E53234FFF532E53134FFF5311E
:0B0B7700E53034FFF53080C8C28C224E
:100B82008F278E268D258C24538EEF438910D28E8B
:100B9200E4FFFEFDFCAB27AA26A925A824C3120464
:100BA200B86025758BCD758DF8308FFDC28F74FFBF
:100BB2002527F527E52634FFF526E52534FFF5251B
:0B0BC200E52434FFF52480C8C28E2219
:100AE9008F378E368D358C3453C9BF53C9DF43C90F
:100AF90010D2CAE4FFFEFDFCAB37AA36A935A834EB
:100B0900C31204B8602575CC6675CDEA30CFFDC235
:100B1900CF74FF2537F537E53634FFF536E535343B
:0E0B2900FFF535E53434FFF53480C8C2CA222A
:100A99008F3B8E3A8D398C3875C40243C408E4FF04
:100AA900FEFDFCAB3BAA3AA939A838C31204B860C9
:100AB9002B75C56675C6EAE5C45410641070F85301
:100AC900C4EF74FF253BF53BE53A34FFF53AE539C8
:100AD90034FFF539E53834FFF53880C253C4F722BD
:100A43008F3F8E3E8D3D8C3C538FFB538FFD538FD9
:100A5300FEE4F586538FDF438F08E4FFFEFDFCAB16
:100A63003FAA3EA93DA83CC31204B86025E58F54B4
:100A730010641070F8538FEF74FF253FF53FE53E88
:100A830034FFF53EE53D34FFF53DE53C34FFF53CF1
:060A930080C8538FF7221A
:10074D000A3D3D3D3D3D3D3D3D3D3D3D3D3D3D3DFF
:10075D003D3D3D3D3D3D3D3D3D3D3D3D3D3D3D3DBC
:10076D003D3D3D3D3D3D3D3D3D3D3D3D3D3D3D3DAC
:10077D003D3D3D3D3D3D3D3D3D3D3D3D3D3D3D3D9C
:10078D003D3D3D3D3D000A2A2020436F7079726941
:10079D006768742863292032303135204E75766FA5
:1007AD00746F6E20546563686E6F6C6F677920434C
:1007BD006F72702E20416C6C2072696768747320A3
:1007CD0072657365727665642E2020000A2A2020DA
:1007DD00436F6E7461637420452D4D61696C3A20D1
:1007ED004D6963726F432D38626974406E75766F13
:1007FD00746F6E2E636F6D2020202020202020200E
:10080D0020202020202020202020202020202020DB
:10081D0020000A2A202044656D6F20566572736989
:10082D006F6E20203A202532642E2532642E25321B
:10083D0064000A2A202046696E6973686564204445
:10084D00617465203A202532642E2532642E2532BE
:02085D00640035
:1009EB007BFF7A07794D1200F07BFF7A0779931220
:1009FB0000F07BFF7A0779D91200F07BFF7A087938
:100A0B001F750B00750C01E4F50DF50EF50FF510C8
:100A1B001200F07BFF7A08793F750B07750CDF75B9
:100A2B000D00750E05750F007510011200F07BFFA0
:080A3B007A07794D1200F02248
:03000000020CD51A
:100CD500787FE4F6D8FD9000007FFF7E01E4F0A365
:0A0CE500DFFCDEFA75814002000317
:1003EA0075F008758200EF2FFFEE33FECD33CDCCCA
:1003FA0033CCC58233C5829BED9AEC99E58298404D
:10040A000CF582EE9BFEED9AFDEC99FC0FD5F0D629
:10041A00E4CEFBE4CDFAE4CCF9A88222B800C1B953
:10042A000059BA002DEC8BF084CFCECDFCE5F0CB91
:10043A00F97818EF2FFFEE33FEED33FDEC33FCEBCA
:10044A0033FB10D703994004EB99FB0FD8E5E4F985
:10045A00FA227818EF2FFFEE33FEED33FDEC33FC72
:10046A00C933C910D7059BE99A4007EC9BFCE99A66
:10047A00F90FD8E0E4C9FAE4CCFB2275F010EF2FAB
:10048A00FFEE33FEED33FDCC33CCC833C810D707AB
:10049A009BEC9AE899400AED9BFDEC9AFCE899F8E6
:0E04AA000FD5F0DAE4CDFBE4CCFAE4C8F92279
:1004B800EB9FF5F0EA9E42F0E99D42F0E89C45F09A
:0104C8002211
:1004C900E8600FECC313FCED13FDEE13FEEF13FF11
:0304D900D8F12235
:0C04DC00E6FC08E6FD08E6FE08E6FF224C
:0D04E800E6FB08E6F908E6FA08E6CBF82284
:0C04F500ECF608EDF608EEF608EFF62233
:10050100D083D082E493F608740193F608740293C1
:09051100F608740393F6740473F8
:10008E00E517240BF8E60517227808300702780BDF
:10009E00E475F00112057202051A2000EB7F2ED2D4
:1000AE00008018EF540F2490D43440D4FF30040B4A
:1000BE00EF24BFB41A0050032461FFE51860021547
:1000CE0018051BE51B7002051A30070D7808E4753C
:1000DE00F001120572EF020560020C737403D20771
:1000EE008003E4C207F5178B088A09890AE4F5181C
:1000FE00F51AF51BE51860077F201200C980F5750B
:10010E0019FFC201C200C202C203C205C206C20862
:10011E00120097FF700D3007057F001200DAAF1B3B
:10012E00AE1A22B4255FC2D5C204120097FF24D0A6
:10013E00B40A00501A75F00A781830D50508B6FFC3
:10014E000106C6A426F620D5047002D20380D92457
:10015E00CFB41A00EF5004C2E5D2040202DAD20183
:10016E0080C6D20080C0D20280BCD2D580BAD20561
:10017E0080B47F201200C92002077401B518004018
:10018E00F112008EFF1200C9020102D208D20680BF
:10019E009512008EFB12008EFA12008EF94A4B70E9
:1001AE000679AB7A037BFF20022EE518602A7E00CB
:1001BE008E8275830012053360060EEE651970F09F
:1001CE00C2D5EBC0E0EAC0E0E9C0E0EE120321D0F8
:1001DE00E0F9D0E0FAD0E0FB12051AFF60AAEBC0FE
:1001EE00E0EAC0E0E9C0E01200C9D0E02401F9D095
:1001FE00E03400FAD0E0FBE5190460DCD519D980B3
:10020E00877BFF7A03791DD202809C791080027958
:10021E0008C206C2088008D2D5790A8004790AC2BB
:10022E00D5E519047002F519E4FAFDFEFF12008EF1
:10023E00FC7B0820011312008EFD7B1030000A1289
:10024E00008EFE12008EFF7B20EC3382D592D550AD
:10025E0013C3E43000069FFFE49EFEE42001039DDD
:10026E00FDE49CFCE4CBF8C201EC700CCFCECDCCFF
:10027E00E824F8F870F38017C3EF33FFEE33FEED8A
:10028E0033FDEC33FCEB33FB994002FB0FD8E9EB6B
:10029E00300105F8D0E0C448B201C0E00AEC4D4E82
:1002AE004F78207B0070C2EAB5190040BCC0E01246
:1002BE000323D0F0D0E0200104C4C0E0C4B201C0DA
:1002CE00F01200B2D0F0D5F0EB020102120582015D
:1002DE009F5302195801704C016C42021D4F0225AA
:0F02EE0044022549018543022B55020F46020F9A
:1002FD0045020F4703CB5001742D01782E019B2B26
:10030D00017C2301992003B42A0134480000019394
:10031D003F3F3F00790AA2D5200314300509B910DB
:10032D00020404B9080104A2D520060250010420DC
:10033D0002689202B518005034C0E07F20300319D6
:10034D007F30A20272067205500F12037AC202C2EA
:10035D0006C205C2087F30800F300503E9C0E012E8
:10036D0000C9300503D0E0F9D0E0B518CC30051741
:10037D007F30B9100C1200C97F583004077F788088
:10038D0003B908031200C93002057F2D0200C97F91
:10039D00202008F87F2B2006F322920280CF286EB2
:1003AD00756C6C2900D20112008E3001F8C20178F3
:1003BD001830D50108F60201342D5043495812006A
:1003CD008E2403B405004001E49003C6931200BAD5
:0D03DD00743A1200BAD20375180402021916
:10051A00BB010689828A83E0225002E722BBFE02DF
:09052A00E32289828A83E4932212
:10053300BB010CE58229F582E5833AF583E022507D
:1005430006E92582F8E622BBFE06E92582F8E222C7
:0D055300E58229F582E5833AF583E49322E1
:10056000BB010689828A83F0225002F722BBFE017A
:02057000F32274
:10057200FAE6FB0808E6F925F0F618E6CA3AF6228A
:10058200D083D082F8E4937012740193700DA3A308
:1005920093F8740193F5828883E47374029368601C
:0605A200EFA3A3A380DF1C
:100C7300EFB40A07740D120C7E740A309811A89908
:100C8300B8130CC2983098FDA899C298B811F630E1
:070C930099FDC299F59922B9
:00000001FF
