:070D7700014009023E0000EB
:0E0D69007F02120548120D9F120CFB80FE2225
:100CFB00D2AF439B80D2CA43C94053C9CF53C8FE1E
:100D0B0043C98043C90875CBE5E4F5CAF5CCF5CDED
:010D1B0022B5
:03002B00020B23A2
:100B2300C0E0C0F0C083C082C0D075D000C000C098
:100B330001C002C003C004C005C006C007C2CFE5A0
:100B43004075F014A485F03EF53FD283FFAE3E120C
:100B53000D1CC283D007D006D005D004D003D00229
:0F0B6300D001D000D0D0D082D083D0F0D0E032FB
:070D9F0053B1F743B2082233
:10054800EF14606E1470030206641470030206A5AB
:1005580014700302060F240460030206E4A2AF929B
:1005680009C2AF75C7AA75C755439780A20992AF4C
:10057800A2AF9209C2AF75C7AA75C7555397BFA254
:100588000992AFE596548060FAA2AF9209C2AF759E
:10059800C7AA75C7555396FBA20992AFA2AF920995
:1005A800C2AF75C7AA75C755439602A20992AF0292
:1005B80006E4A2AF9209C2AF75C7AA75C75553978B
:1005C8007FA20992AFA2AF9209C2AF75C7AA75C739
:1005D80055439740A20992AFE596544060FAA2AFFE
:1005E8009209C2AF75C7AA75C7555396FBA209925F
:1005F800AFA2AF9209C2AF75C7AA75C75543960295
:10060800A20992AF0206E4A2AF9209C2AF75C7AAC7
:1006180075C75553977FA20992AFA2AF9209C2AF8F
:1006280075C7AA75C7555397BFA20992AFE59654E7
:100638000860FAA2AF9209C2AF75C7AA75C7555329
:1006480096FBA20992AFA2AF9209C2AF75C7AA756D
:10065800C755439602A20992AF0206E4A2AF9209D7
:10066800C2AF75C7AA75C755439720A20992AFE5CF
:1006780096542060FAA2AF9209C2AF75C7AA75C78F
:10068800555396FBA20992AFA2AF9209C2AF75C7A4
:10069800AA75C7555396FDA20992AF803FA2AF92A3
:1006A80009C2AF75C7AA75C755439710A20992AF7B
:1006B800E596541060FAA2AF9209C2AF75C7AA7541
:1006C800C755439604A20992AFA2AF9209C2AF756B
:1006D800C7AA75C7555396FDA20992AFE59754016D
:0506E800640160F8222E
:1000030075985243892053877F538EEF53C4DFABD8
:1000130007AA06A905A804E4FF7EE1FDFC1203C6B6
:08002300EFF404F58DD28E22EA
:100C5600759852438920438780538EEF53C4DFAB88
:100C660007AA06A905A8047F007EC27D017C0012A2
:0A0C760003C6EFF404F58DD28E22C0
:100C800075985243892053877F438E1053C4DFAB3E
:100C900007AA06A905A8047F007E8C7D0A7C0012A5
:0A0CA00003C6EFF404F58DD28E2296
:100CAA00759852438920438780438E1053C4DFAB23
:100CBA0007AA06A905A8047F007E187D157C0012E4
:0A0CCA0003C6EFF404F58DD28E226C
:100899008F1F8E1E8D1D8C1C75985253877F53C4D4
:1008A900F843C420AB1FAA1EA91DA81C7F007E8C7B
:1008B9007D0A7C001203C6C3E49FFFE49EFE740117
:1008C9009DFDE49CFC78081204698FC6AB1FAA1E23
:1008D900A91DA81C7F007E8C7D0A7C001203C6C35B
:1008E900E49FFFE49EFE74019DFDE49CFCEFE48F10
:0508F900C543C4082204
:1008FE008F258E248D238C2275985243878053C466
:10090E00F843C420AB25AA24A923A8227F007E1871
:10091E007D157C001203C6C3E49FFFE49EFE7401A6
:10092E009DFDE49CFC78081204698FC6AB25AA24B1
:10093E00A923A8227F007E187D157C001203C6C352
:10094E00E49FFFE49EFE74019DFDE49CFCEFE48FAA
:05095E00C543C408229E
:1009C6008F298E288D278C2675F85253C4F8AB29AB
:1009D600AA28A927A8267F007E187D157C00120369
:1009E600C6C3E49FFFE49EFE74019DFDE49CFC7873
:1009F600081204698FC6AB29AA28A927A8267F0052
:100A06007E187D157C001203C6C3E49FFFE49EFE9C
:0F0A160074019DFDE49CFCEFE48FC543C40822EE
:070D7F003098FDAF99C29806
:010D8600224A
:080D8700C2998F993099FD22F9
:070D8F0030F8FDAF9AC2F835
:010D9600223A
:080D9700C2F98F9A30F9FD2228
:100D5700E4F5B1F5B2F5B3F5B4F5B5F5B6F5ACF51F
:020D6700AD22BB
:100D3D0075C7AA75C755A2AF9209C2AF75C7AA7577
:0A0D4D00C755439F80A20992AF2210
:040DA60043B4082228
:06096300E54124F8F54116
:10096900F81204A100000000E47FFF7EFFFDFCA84F
:1009790041120488C3120458503CE5412404F8127A
:10098900047CE4FAF9F8EF2401FFEA3EFEE93DFDB3
:10099900E83CFCE5412404F8120495A84112047CC2
:1009A900E4F8EF2401FFEA3EFEE93DFDE83CFCA83E
:0609B9004112049580B21A
:0709BF00E5412408F5412287
:100D1C00538EF7438901D28CEF4E6012758AEE75B3
:100D2C008CFF308DFDC28DEF1F70011E80EAC28CCE
:010D3C002294
:100BC0008F2D8E2C8D2B8C2A538EF7438901D28C3E
:100BD000E4FFFEFDFCAB2DAA2CA92BA82AC312040E
:100BE000586025758ACD758CF8308DFDC28D74FFE7
:100BF000252DF52DE52C34FFF52CE52B34FFF52BB9
:0B0C0000E52A34FFF52A80C8C28C22D0
:100C0B008F318E308D2F8C2E538EEF438910D28ED9
:100C1B00E4FFFEFDFCAB31AA30A92FA82EC31204B2
:100C2B00586025758BCD758DF8308FFDC28F74FF95
:100C3B002531F531E53034FFF530E52F34FFF52F55
:0B0C4B00E52E34FFF52E80C8C28E227B
:100B72008F358E348D338C3253C9BF53C9DF43C98D
:100B820010D2CAE4FFFEFDFCAB35AA34A933A83269
:100B9200C3120458602575CC6675CDEA30CFFDC20C
:100BA200CF74FF2535F535E53434FFF534E53334BC
:0E0BB200FFF533E53234FFF53280C8C2CA22A7
:100AD3008F398E388D378C3675C40243C408E4FFD2
:100AE300FEFDFCAB39AA38A937A836C312045860F7
:100AF3002B75C56675C6EAE5C45410641070F853C7
:100B0300C4EF74FF2539F539E53834FFF538E53797
:100B130034FFF537E53634FFF53680C253C4F72288
:100A7D008F3D8E3C8D3B8C3A538FFB538FFD538FA7
:100A8D00FEE4F586538FDF438F08E4FFFEFDFCABDC
:100A9D003DAA3CA93BA83AC31204586025E58F54E2
:100AAD0010641070F8538FEF74FF253DF53DE53C54
:100ABD0034FFF53CE53B34FFF53BE53A34FFF53AC1
:060ACD0080C8538FF722E0
:1006ED000A3D3D3D3D3D3D3D3D3D3D3D3D3D3D3D60
:1006FD003D3D3D3D3D3D3D3D3D3D3D3D3D3D3D3D1D
:10070D003D3D3D3D3D3D3D3D3D3D3D3D3D3D3D3D0C
:10071D003D3D3D3D3D3D3D3D3D3D3D3D3D3D3D3DFC
:10072D003D3D3D3D3D000A2A2020436F70797269A1
:10073D006768742863292032303135204E75766F05
:10074D00746F6E20546563686E6F6C6F67792043AC
:10075D006F72702E20416C6C207269676874732003
:10076D0072657365727665642E2020000A2A20203A
:10077D00436F6E7461637420452D4D61696C3A2031
:10078D004D6963726F432D38626974406E75766F73
:10079D00746F6E2E636F6D2020202020202020206E
:1007AD00202020202020202020202020202020203C
:1007BD0020000A2A202044656D6F205665727369EA
:1007CD006F6E20203A202532642E2532642E25327C
:1007DD0064000A2A202046696E69736865642044A6
:1007ED00617465203A202532642E2532642E25321F
:0207FD00640096
:100A25007BFF7A0679ED1200907BFF7A0779331206
:100A350000907BFF7A0779791200907BFF7A07791E
:100A4500BF750B00750C01E4F50DF50EF50FF510EE
:100A55001200907BFF7A0779DF750B07750CDF7540
:100A65000D00750E05750F007510011200907BFFC6
:080A75007A0679ED12009022CF
:030000000207FFF5
:1007FF00787FE4F6D8FD9000007FFF7E01E4F0A340
:0A080F00DFFCDEFA75814102085497
:10081900020D69E493A3F8E493A34003F68001F27F
:1008290008DFF48029E493A3F85407240CC8C333E0
:10083900C4540F4420C8834004F456800146F6DFAF
:10084900E4800B0102040810204080900D77E47EBB
:10085900019360BCA3FF543F30E509541FFEE493A4
:10086900A360010ECF54C025E060A840B8E493A36B
:10087900FAE493A3F8E493A3C8C582C8CAC583CA96
:10088900F0A3C8C582C8CAC583CADFE9DEE780BE4E
:010D7E000074
:10038A0075F008758200EF2FFFEE33FECD33CDCC2A
:10039A0033CCC58233C5829BED9AEC99E5829840AD
:1003AA000CF582EE9BFEED9AFDEC99FC0FD5F0D68A
:1003BA00E4CEFBE4CDFAE4CCF9A88222B800C1B9B4
:1003CA000059BA002DEC8BF084CFCECDFCE5F0CBF2
:1003DA00F97818EF2FFFEE33FEED33FDEC33FCEB2B
:1003EA0033FB10D703994004EB99FB0FD8E5E4F9E6
:1003FA00FA227818EF2FFFEE33FEED33FDEC33FCD3
:10040A00C933C910D7059BE99A4007EC9BFCE99AC6
:10041A00F90FD8E0E4C9FAE4CCFB2275F010EF2F0B
:10042A00FFEE33FEED33FDCC33CCC833C810D7070B
:10043A009BEC9AE899400AED9BFDEC9AFCE899F846
:0E044A000FD5F0DAE4CDFBE4CCFAE4C8F922D9
:10045800EB9FF5F0EA9E42F0E99D42F0E89C45F0FA
:010468002271
:10046900E8600FECC313FCED13FDEE13FEEF13FF71
:03047900D8F12295
:0C047C00E6FC08E6FD08E6FE08E6FF22AC
:0D048800E6FB08E6F908E6FA08E6CBF822E4
:0C049500ECF608EDF608EEF608EFF62293
:1004A100D083D082E493F608740193F60874029322
:0904B100F608740393F674047359
:10002E00E517240BF8E60517227808300702780B3F
:10003E00E475F0011205120204BA2000EB7F2ED2F5
:10004E00008018EF540F2490D43440D4FF30040BAA
:10005E00EF24BFB41A0050032461FFE518600215A7
:10006E0018051BE51B7002051A30070D7808E4759C
:10007E00F001120512EF020500020CD47403D20730
:10008E008003E4C207F5178B088A09890AE4F5187C
:10009E00F51AF51BE51860077F2012006980F575CB
:1000AE0019FFC201C200C202C203C205C206C208C3
:1000BE00120037FF700D3007057F0012007AAF1B5C
:1000CE00AE1A22B4255FC2D5C204120037FF24D067
:1000DE00B40A00501A75F00A781830D50508B6FF24
:1000EE000106C6A426F620D5047002D20380D924B8
:1000FE00CFB41A00EF5004C2E5D20402027AD20144
:10010E0080C6D20080C0D20280BCD2D580BAD205C1
:10011E0080B47F201200692002077401B5180040D8
:10012E00F112002EFF1200690200A2D208D2068040
:10013E009512002EFB12002EFA12002EF94A4B7069
:10014E0006794B7A037BFF20022EE518602A7E008B
:10015E008E827583001204D360060EEE651970F060
:10016E00C2D5EBC0E0EAC0E0E9C0E0EE1202C1D0B9
:10017E00E0F9D0E0FAD0E0FB1204BAFF60AAEBC0BF
:10018E00E0EAC0E0E9C0E0120069D0E02401F9D055
:10019E00E03400FAD0E0FBE5190460DCD519D98013
:1001AE00877BFF7A0279BDD202809C79108002791A
:1001BE0008C206C2088008D2D5790A8004790AC21C
:1001CE00D5E519047002F519E4FAFDFEFF12002EB2
:1001DE00FC7B0820011312002EFD7B1030000A124A
:1001EE00002EFE12002EFF7B20EC3382D592D550CE
:1001FE0013C3E43000069FFFE49EFEE42001039D3E
:10020E00FDE49CFCE4CBF8C201EC700CCFCECDCC5F
:10021E00E824F8F870F38017C3EF33FFEE33FEEDEA
:10022E0033FDEC33FCEB33FB994002FB0FD8E9EBCB
:10023E00300105F8D0E0C448B201C0E00AEC4D4EE2
:10024E004F78207B0070C2EAB5190040BCC0E012A6
:10025E0002C3D0F0D0E0200104C4C0E0C4B201C09B
:10026E00F0120052D0F0D5F0EB0200A212052201DE
:10027E003F5301B95801104C010C4201BD4F01C54D
:0F028E004401C54901254301CB5501AF4601AFDE
:10029D004501AF47036B5001142D01182E013B2B67
:1002AD00011C2301392003542A00D44800000133D6
:1002BD003F3F3F00790AA2D5200314300509B9103C
:1002CD00020404B9080104A2D5200602500104203D
:1002DD0002689202B518005034C0E07F2030031937
:1002ED007F30A20272067205500F12031AC202C2AB
:1002FD0006C205C2087F30800F300503E9C0E01249
:10030D000069300503D0E0F9D0E0B518CC30051701
:10031D007F30B9100C1200697F583004077F788048
:10032D0003B908031200693002057F2D0200697FB1
:10033D00202008F87F2B2006F322920280CF286E12
:10034D00756C6C2900D20112002E3001F8C20178B3
:10035D001830D50108F60200D42D5043495812002B
:10036D002E2403B405004001E49003669312005A55
:0D037D00743A12005AD2037518040201B937
:1004BA00BB010689828A83E0225002E722BBFE0240
:0904CA00E32289828A83E4932273
:1004D300BB010CE58229F582E5833AF583E02250DE
:1004E30006E92582F8E622BBFE06E92582F8E22228
:0D04F300E58229F582E5833AF583E4932242
:10050000BB010689828A83F0225002F722BBFE01DA
:02051000F322D4
:10051200FAE6FB0808E6F925F0F618E6CA3AF622EA
:10052200D083D082F8E4937012740193700DA3A368
:1005320093F8740193F5828883E47374029368607C
:06054200EFA3A3A380DF7C
:100CD400EFB40A07740D120CDF740A309811A89946
:100CE400B8130CC2983098FDA899C298B811F63080
:070CF40099FDC299F5992258
:00000001FF
