:100FF700E4F50BF50AF509F508F50CF50D7F021276
:101007000B0643B18053B27F12129512117D8E0CDD
:101017008F0D12117D8E0C8F0DAC0CAD0DE41201EE
:101027000E7B0A7A2879A0783B1200038F0B8E0A71
:101037008D098C087FF47E017D007C0012113280BF
:01104700D1D7
:011048002285
:1012950053E17F43E80743B18053B27F43F6805360
:0C12A500E1BF43E12053E1EF43E10122EF
:10117D00E4FDFCC2EFD2EE30EFFDAFC37C00AD0756
:10118D007E00ED7802C333CE33CED8F9FDAC06AF79
:09119D00C2EF4205E4AE04AF0507
:0111A6002226
:100B0600EF14606E147003020C22147003020C635F
:100B1600147003020BCD24046003020CA2A2AF9250
:100B260009C2AF75C7AA75C755439780A20992AF88
:100B3600A2AF9209C2AF75C7AA75C7555397BFA290
:100B46000992AFE596548060FAA2AF9209C2AF75DA
:100B5600C7AA75C7555396FBA20992AFA2AF9209D1
:100B6600C2AF75C7AA75C755439602A20992AF02CE
:100B76000CA2A2AF9209C2AF75C7AA75C755539703
:100B86007FA20992AFA2AF9209C2AF75C7AA75C775
:100B960055439740A20992AFE596544060FAA2AF3A
:100BA6009209C2AF75C7AA75C7555396FBA209929B
:100BB600AFA2AF9209C2AF75C7AA75C755439602D1
:100BC600A20992AF020CA2A2AF9209C2AF75C7AA40
:100BD60075C75553977FA20992AFA2AF9209C2AFCC
:100BE60075C7AA75C7555397BFA20992AFE5965424
:100BF6000860FAA2AF9209C2AF75C7AA75C7555366
:100C060096FBA20992AFA2AF9209C2AF75C7AA75A9
:100C1600C755439602A20992AF020CA2A2AF92094F
:100C2600C2AF75C7AA75C755439720A20992AFE50B
:100C360096542060FAA2AF9209C2AF75C7AA75C7CB
:100C4600555396FBA20992AFA2AF9209C2AF75C7E0
:100C5600AA75C7555396FDA20992AF803FA2AF92DF
:100C660009C2AF75C7AA75C755439710A20992AFB7
:100C7600E596541060FAA2AF9209C2AF75C7AA757D
:100C8600C755439604A20992AFA2AF9209C2AF75A7
:100C9600C7AA75C7555396FDA20992AFE5975401A9
:050CA600640160F8226A
:1012250075985243892053877F538EEF53C4DFABA4
:1012350007AA06A905A804E4FF7EE1FDFC12055FE7
:08124500EFF404F58DD28E22B6
:1011A700759852438920438780538EEF53C4DFAB32
:1011B70007AA06A905A8047F007EC27D017C00124C
:0A11C700055FEFF404F58DD28E22CF
:1011D10075985243892053877F438E1053C4DFABE8
:1011E10007AA06A905A8047F007E8C7D0A7C00124F
:0A11F100055FEFF404F58DD28E22A5
:1011FB00759852438920438780438E1053C4DFABCD
:10120B0007AA06A905A8047F007E187D157C00128D
:0A121B00055FEFF404F58DD28E227A
:100DBD008F158E148D138C1275985253877F53C4D3
:100DCD00F843C420AB15AA14A913A8127F007E8C7A
:100DDD007D0A7C0012055FC3E49FFFE49EFE740153
:100DED009DFDE49CFC78081206108FC6AB15AA1465
:100DFD00A913A8127F007E8C7D0A7C0012055FC3AB
:100E0D00E49FFFE49EFE74019DFDE49CFCEFE48FE6
:050E1D00C543C40822DA
:100E22008F198E188D178C1675985243878053C46C
:100E3200F843C420AB19AA18A917A8167F007E1878
:100E42007D157C0012055FC3E49FFFE49EFE7401E2
:100E52009DFDE49CFC78081206108FC6AB19AA18F7
:100E6200A917A8167F007E187D157C0012055FC3A6
:100E7200E49FFFE49EFE74019DFDE49CFCEFE48F81
:050E8200C543C4082275
:100EEA008F1D8E1C8D1B8C1A75F85253C4F8AB1DBE
:100EFA00AA1CA91BA81A7F007E187D157C00120562
:100F0A005FC3E49FFFE49EFE74019DFDE49CFC78B0
:100F1A00081206108FC6AB1DAA1CA91BA81A7F00AF
:100F2A007E187D157C0012055FC3E49FFFE49EFED8
:0F0F3A0074019DFDE49CFCEFE48FC543C40822C5
:0712F7003098FDAF99C29889
:0112FE0022CD
:0812FF00C2998F993099FD227C
:0713070030F8FDAF9AC2F8B7
:01130E0022BC
:08130F00C2F98F9A30F9FD22AA
:1012E500E4F5B1F5B2F5B3F5B4F5B5F5B6F5ACF58C
:0212F500AD2228
:1012B10075C7AA75C755A2AF9209C2AF75C7AA75FE
:0A12C100C755439F80A20992AF2297
:0413170043B40822B1
:060E8700E51E24F8F51E33
:100E8D00F812064800000000E47FFF7EFFFDFCA87D
:100E9D001E12062FC31205FF503CE51E2404F81246
:100EAD000623E4FAF9F8EF2401FFEA3EFEE93DFDE1
:100EBD00E83CFCE51E2404F812063CA81E1206238D
:100ECD00E4F8EF2401FFEA3EFEE93DFDE83CFCA815
:060EDD001E12063C80B26B
:070EE300E51E2408F51E22A4
:10127400538EF7438901D28CEF4E6012758AEE7556
:101284008CFF308DFDC28DEF1F70011E80EAC28C71
:011294002237
:1010E7008F418E408D3F8C3E538EF7438901D28CC2
:1010F700E4FFFEFDFCAB41AA40A93FA83EC3120591
:10110700FF6025758ACD758CF8308DFDC28D74FF13
:101117002541F541E54034FFF540E53F34FFF53F14
:0B112700E53E34FFF53E80C8C28C227C
:101132008F118E108D0F8C0E538EEF438910D28E2D
:10114200E4FFFEFDFCAB11AA10A90FA80EC3120505
:10115200FF6025758BCD758DF8308FFDC28F74FFC2
:101162002511F511E51034FFF510E50F34FFF50FE9
:0B117200E50E34FFF50E80C8C28E228F
:101099008F458E448D438C4253C9BF53C9DF43C921
:1010A90010D2CAE4FFFEFDFCAB45AA44A943A842FD
:1010B900C31205FF602575CC6675CDEA30CFFDC238
:1010C900CF74FF2545F545E54434FFF544E5433440
:0E10D900FFF543E54234FFF54280C8C2CA224B
:101049008F498E488D478C4675C40243C408E4FF16
:10105900FEFDFCAB49AA48A947A846C31205FF6093
:101069002B75C56675C6EAE5C45410641070F8534B
:10107900C4EF74FF2549F549E54834FFF548E547CC
:1010890034FFF547E54634FFF54680C253C4F722DD
:100FA1008F4D8E4C8D4B8C4A538FFB538FFD538F3E
:100FB100FEE4F586538FDF438F08E4FFFEFDFCABB3
:100FC1004DAA4CA94BA84AC31205FF6025E58F54D1
:100FD10010641070F8538FEF74FF254DF54DE54CFB
:100FE10034FFF54CE54B34FFF54BE54A34FFF54A48
:060FF10080C8538FF722B7
:100CAB000A3D3D3D3D3D3D3D3D3D3D3D3D3D3D3D9C
:100CBB003D3D3D3D3D3D3D3D3D3D3D3D3D3D3D3D59
:100CCB003D3D3D3D3D3D3D3D3D3D3D3D3D3D3D3D49
:100CDB003D3D3D3D3D3D3D3D3D3D3D3D3D3D3D3D39
:100CEB003D3D3D3D3D000A2A2020436F70797269DE
:100CFB006768742863292032303135204E75766F42
:100D0B00746F6E20546563686E6F6C6F67792043E8
:100D1B006F72702E20416C6C20726967687473203F
:100D2B0072657365727665642E2020000A2A202076
:100D3B00436F6E7461637420452D4D61696C3A206D
:100D4B004D6963726F432D38626974406E75766FAF
:100D5B00746F6E2E636F6D202020202020202020AA
:100D6B002020202020202020202020202020202078
:100D7B0020000A2A202044656D6F20566572736926
:100D8B006F6E20203A202532642E2532642E2532B8
:100D9B0064000A2A202046696E69736865642044E2
:100DAB00617465203A202532642E2532642E25325B
:020DBB006400D2
:100F49007BFF7A0C79AB1206F97BFF7A0C79F112E7
:100F590006F97BFF7A0D79371206F97BFF7A0D794D
:100F69007D752500752601E4F527F528F529F52A6B
:100F79001206F97BFF7A0D799D7525077526DF75B0
:100F89002700752805752900752A011206F97BFFC6
:080F99007A0C79AB1206F92273
:030000000212CB1E
:1012CB00787FE4F6D8FD9000007FFF7E01E4F0A369
:0A12DB00DFFCDEFA75814D020FF70B
:10000300EC4D6011E8497017ED33EC3304600DE4F7
:10001300FCFFFEFD22E933E8330470F802017C1291
:10002300014758046009E4CC248150062850090292
:100033000186284003020183C0E0EB4A7044B98083
:1000430006D0E0FB020172EF4E701CBD8008EBFF8F
:10005300EAFEE9FD80EBE98DF0A4FEE5F00200EC99
:10006300E9CDF9EAFEEBFFEF89F0A4FCE5F0CE89D8
:10007300F0A42EFFE435F0CD89F0A42DFEE435F095
:100083008067EF4E7005BD80D780C3EF8BF0A4ACC3
:10009300F0EE8BF0A42CFCE435F0F8EF8AF0A42CFE
:1000A300E5F038FCE433CB8DF0A42CFCE5F03BF811
:1000B300EE8AF0A42CFCE5F038F8E433CF89F0A401
:1000C3002CFCE5F038CF3400CE89F0A42FFFE5F007
:1000D3003EFEE433C98DF0A42EFEE5F039CD8AF05F
:1000E300A42FFFE5F03EFEE43DFD33D0E0FB5007D7
:1000F3000BBB000F020186EC2CFCEF33FFEE33FE4B
:06010300ED33FD02015E78
:1001090075F020800E75F010800575F0087D007E71
:10011900007F003392D530D5031205F1EC3340103E
:10012900EF33FFEE33FEED33FDEC33FCD5F0ED227A
:0E013900E5F0247EA2D513CC92E7CDCEFF22B6
:10069700E5392425F8E6053922782230070278253E
:1006A700E475F0011206610204CB2000EB7F2ED225
:1006B700008018EF540F2490D43440D4FF30040B3B
:1006C700EF24BFB41A0050032461FFE53A60021516
:1006D7003A053DE53D7002053C30070D7822E4758B
:1006E700F001120661EF02051102124D7403D207E1
:1006F7008003E4C207F5398B228A238924E4F53A7B
:10070700F53CF53DE53A60077F201206D280F57586
:100717003BFFC201C200C202C203C205C206C20831
:100727001206A0FF700D3007057F001206E3AF3DEC
:10073700AE3C22B4255FC2D5C2041206A0FF24D066
:10074700B40A00501A75F00A783A30D50508B6FF92
:100757000106C6A426F620D5047002D20380D92448
:10076700CFB41A00EF5004C2E5D2040209D0D20177
:1007770080C6D20080C0D20280BCD2D580BAD20552
:1007870080B47F201206D22002077401B53A0040D8
:10079700F1120697FF1206D202070BD208D2068083
:1007A70095120697FB120697FA120697F94A4B70AD
:1007B7000679C77A0A7BFF20022EE53A602A7E0077
:1007C7008E827583001204E460060EEE653B70F0BE
:1007D700C2D5EBC0E0EAC0E0E9C0E0EE120A30D0D3
:1007E700E0F9D0E0FAD0E0FB1204CBFF60AAEBC03F
:1007F700E0EAC0E0E9C0E01206D2D0E02401F9D077
:10080700E03400FAD0E0FBE53B0460DCD53BD9805F
:1008170087D20280A2120A1360F7E53B7001041227
:100827000191A93B600DE53B600914F53B120ABA3B
:10083700EF60F3EA30E702F404C3995077EAF4254E
:100847003B0430E701E404F53B800D120A1360C155
:10085700EA053B253B120191EA7838F630E701E4D7
:10086700253B04D53B0420050114120A30E4C0E0FF
:10087700120ABA7838E6601320E70714F61206BAA8
:10088700802204F6D0E014C0E07F001206BAE53BF0
:1008970060071206B1153B800B3005031206B1D075
:1008A700E002070BD0E00480C5120A1360A0E53B05
:1008B700041201917838EAF6E53B2005026001044D
:0508C7002404120A30B8
:1008CC0074FF04C0E0120ABA1206BAE53B20050216
:1008DC0060031206B1D0E0B53BE87F451206C47840
:1008EC0038E67F2B30E7047F2DF404C0E01206D2EB
:1008FC00D0E075F00A84C0F01206BBD0E01206BB43
:10090C0002070B791080027908C206C2088008D24F
:10091C00D5790A8004790AC2D5E53B047002F53B0F
:10092C00E4FAFDFEFF120697FC7B08200113120669
:10093C0097FD7B1030000A120697FE120697FF7B7C
:10094C0020EC3382D592D55013C3E43000069FFFC0
:10095C00E49EFEE42001039DFDE49CFCE4CBF8C284
:10096C0001EC700CCFCECDCCE824F8F870F38017E6
:10097C00C3EF33FFEE33FEED33FDEC33FCEB33FB17
:10098C00994002FB0FD8E9EB300105F8D0E0C448E0
:10099C00B201C0E00AEC4D4E4F78207B0070C2EAE9
:1009AC00B53B0040BCC0E0120A32D0F0D0E02001D0
:1009BC0004C4C0E0C4B201C0F01206BBD0F0D5F044
:1009CC00EB02070B12067107A853090F5807794C55
:1009DC0007754209134F091B44091B49078E43092C
:1009EC00215508524608B045081C470AE750077DB8
:1009FC002D07812E07A42B07852307A2200AD02AB6
:100A0C00073D480000079CE53BB4FF03753B06120D
:100A1C000697FC120697FD120697FE120697FF78B2
:100A2C00310201C0790AA2D5200314300509B9108E
:100A3C00020404B9080104A2D520060250010420C6
:100A4C0002689202B53A005034C0E07F203003199E
:100A5C007F30A20272067205500F120A89C202C2BE
:100A6C0006C205C2087F30800F300503E9C0E012D2
:100A7C0006D2300503D0E0F9D0E0B53ACC300517FA
:100A8C007F30B9100C1206D27F583004077F788063
:100A9C0003B908031206D23002057F2D0206D27F5D
:100AAC00202008F87F2B2006F322920280CF7F00B3
:100ABC00B4070050052431F8E6FF22286E756C6CE3
:100ACC002900D2011206973001F8C201783A30D5CC
:100ADC000108F602073D2D5043495812069724038E
:100AEC00B405004001E4900AE2931206C3743A1272
:0A0AFC0006C3D203753A0402090F85
:10014700E9D2E7C933E833F892D5EDD2E7CD33ECFE
:0701570033FC5002B2D52277
:10015E00EC30E7100FBF000C0EBE00080DBD000402
:10016E000BEB6014A2D5EB13FCED92E7FD2274FFAE
:10017E00FCFDFEFF22E480F8A2D574FF13FC7D8007
:03018E00E480EF1B
:10019100F920E72824F950037907E4F42402FB1835
:1001A100DBFDE624FB5014E9600DE4F618E604F6E5
:0F01B100B40A08E4F6D9F57401F60A22C2D52281
:1001C000ED33EC3392D5FA602AB4FF33EDC2E77B0E
:1001D000FF60067A0179E5E4227A0179EE20D50400
:1001E0007A0179E9224E614E002B494E46002D4995
:1001F0004E4600E47A08F608DAFC7B00740722E831
:10020000C0E0ECC0E0EDC0E0EEC0E0EFC0E0EA75B9
:10021000F010A4CAABF075F04DA42BFBE435F0FC54
:10022000EA2410FAEB34C5FBEC34D9FCEDC2E7FF4D
:1002300075F056A4F42411C5F0F434C58FF0A42A47
:10024000E5F03BE43CF620E71412048BD0E0FFD04D
:10025000E0FED0E0FDD0E0FC1203BE8014F40412F6
:10026000048BD0E0FFD0E0FED0E0FDD0E0FC120037
:1002700003D0E0F8E6FAEDD2E7CD33EC332482FB8D
:10028000E4C3CF33CFCE33CECD33CD33DBF37B07D7
:1002900075F00A846004F6081B0AE5F0F6088FF092
:1002A000740AA4FFACF08EF0740AA42CFEACF050DB
:1002B000010C8DF0740AA42CFDE435F0F608DBDEA9
:0302C0007407229E
:1002C30002017CE86480F8E933E83360110460F0EC
:1002D300ED33EC337009E8FCE9FDEAFEEBFF2204A1
:1002E30060DED3EB9FEA9EE99DE8C2E78CF0C2F79C
:1002F30095F0400CE8CCF8E9CDF9EACEFAEBCFFB68
:1003030012014785D0F05804700320D5B3E8047078
:10031300075002B2D502018692D5EC0460F7E4CC13
:10032300C0E0C398F8603B94186008400DD0E0FB30
:1003330002015EE4FBFAC9FC8028E830E406E4C964
:10034300FBE4CAFCE830E305E4C9CACBFCE8540784
:100353006010F8C3E913F9EA13FAEB13FBEC13FC8F
:10036300D8F130F52FC3E49CFCEF9BFFEE9AFEED32
:1003730099FDD0E0FBEF4E4D4C701222DB030201DE
:1003830083EC2CFCEF33FFEE33FEED33FDED30E772
:10039300EB02015EEF2BFFEE3AFEED39FDD0E0FB01
:1003A30050130BBB0003020186ED13FDEE13FEEFAA
:0803B30013FFEC13FC02015ED4
:1003BB00020186EC5D046005E85904700302017CC0
:1003CB00120147580460F6EC4860F2EC7004FDFE35
:1003DB00FF22C860DB2481C85009C3986002500615
:1003EB000201839850CAF582E9294B4A7005AB820A
:1003FB0002017275F0007C1A7880C3EF9BEE9AEDC8
:10040B0099400DC3EF9BFFEE9AFEED99FDE842F08C
:10041B00DC23ACF0D0E0FFD0E0FED0E0FDAB8220DF
:10042B00E7101BEB60BAEC2CFCEF33FFEE33FEED69
:10043B0033FD02015EE803F830E705C0F075F0000C
:10044B00EF2FFFEE33FEED33FD40B830E7C280AA4D
:10045B003F8000004120000042C80000447A0000A9
:10046B00461C400047C35000497424004B1896802B
:10047B004CBEBC205A0E1BCA6753C21C749DC5AE22
:10048B00FB60065407601C23231204B9EB5438603D
:10049B00091204A51204B4120003ECF8EDF9EEFAFC
:1004AB00EFCB22EB1204B480F1543803241C9004DC
:1004BB005BFE93FC0EEE93FD0EEE930ECE93FF229E
:1004CB00BB010689828A83E0225002E722BBFE022F
:0904DB00E32289828A83E4932262
:1004E400BB010CE58229F582E5833AF583E02250CD
:1004F40006E92582F8E622BBFE06E92582F8E22217
:0D050400E58229F582E5833AF583E4932230
:10051100BB010689828A83F0225002F722BBFE01C9
:02052100F322C3
:1005230075F008758200EF2FFFEE33FECD33CDCC8F
:1005330033CCC58233C5829BED9AEC99E582984012
:100543000CF582EE9BFEED9AFDEC99FC0FD5F0D6EF
:10055300E4CEFBE4CDFAE4CCF9A88222B800C1B919
:100563000059BA002DEC8BF084CFCECDFCE5F0CB57
:10057300F97818EF2FFFEE33FEED33FDEC33FCEB90
:1005830033FB10D703994004EB99FB0FD8E5E4F94B
:10059300FA227818EF2FFFEE33FEED33FDEC33FC38
:1005A300C933C910D7059BE99A4007EC9BFCE99A2C
:1005B300F90FD8E0E4C9FAE4CCFB2275F010EF2F71
:1005C300FFEE33FEED33FDCC33CCC833C810D70771
:1005D3009BEC9AE899400AED9BFDEC9AFCE899F8AC
:0E05E3000FD5F0DAE4CDFBE4CCFAE4C8F9223F
:0E05F100C3E49FFFE49EFEE49DFDE49CFC221B
:1005FF00EB9FF5F0EA9E42F0E99D42F0E89C45F052
:01060F0022C8
:10061000E8600FECC313FCED13FDEE13FEEF13FFC8
:03062000D8F122EC
:0C062300E6FC08E6FD08E6FE08E6FF2203
:0D062F00E6FB08E6F908E6FA08E6CBF8223B
:0C063C00ECF608EDF608EEF608EFF622EA
:10064800D083D082E493F608740193F60874029379
:09065800F608740393F6740473B0
:10066100FAE6FB0808E6F925F0F618E6CA3AF6229A
:10067100D083D082F8E4937012740193700DA3A318
:1006810093F8740193F5828883E47374029368602C
:06069100EFA3A3A380DF2C
:10124D00EFB40A07740D121258740A309811A89948
:10125D00B8130CC2983098FDA899C298B811F63001
:07126D0099FDC299F59922D9
:00000001FF
