:1008FF0053746172740D0A006368756120746861C6
:10090F007920646874313120726573706F6E73650E
:10091F000D0A00526573706F6E7365206661696CA6
:10092F00210D0A00436865636B73756D20657272E4
:10093F006F7221200D0A0048203D2025317820209C
:10094F00200D0A0054203D202578202020200D0A5C
:10095F0000436865636B2073756D203D2025780D0E
:02096F000A007C
:10086F00E4F50853B1F753B2F753B5FE53B6FE7F15
:10087F000212051D7F807E257D007C00120D8F12D8
:10088F000E5E7BFF7A0879FF1200651207D48F087E
:10089F00E50824FE601214601A240270217BFF7A8F
:1008AF00097907120065803A7BFF7A0979221200D5
:1008BF0065802F7BFF7A09793312006580247BFFD7
:1008CF007A09794685220F1200657BFF7A097953E1
:1008DF0085240F1200657BFF7A09796085260F1238
:0F08EF0000657FB87E0B7D007C00120C49809C59
:0108FE0022D7
:100E33003D3D3D3D3D3D3D3D3D3D3D3D0D0A004379
:090E430053203D2025780D0A0022
:100E4C00D3EF9400EE9400400800EF1F70011E8059
:020E5C00EF2283
:100E5E0053B1DF53B2DF7FE87E037D007C00120CBE
:020E6E00492217
:100CDF00E4F50CF50DF50CC3E50C940874809480C5
:100CEF00501DE50D25E0F50D3085FD7F037E0012CB
:100CFF000DDE308503430D012085FD050C80D8AF37
:010D0F000DD6
:010D100022C0
:1007D400E4F509F50AF50BD285C2857F12FEFDFC0E
:1007E400120C49D2857F037E00120DDEA285E4330C
:1007F400F50B60037F01227F087E00120DDEA285C7
:10080400E433F50B70037F02227F087E00120DDEB5
:10081400E4F509D3E509940474809480500E120C15
:10082400DF74222509F8A607050980E7D285E4F5D7
:1008340009D3E509940374809480500E7422250929
:10084400F8E6250AF50A050980E77BFF7A0E793375
:100854001200657BFF7A0E7942850A0F120065E566
:0A0864000A652660037F03227F006F
:01086E002267
:10051D00EF14606E14700302063914700302067A2C
:10052D001470030205E4240460030206B9A2AF921D
:10053D0009C2AF75C7AA75C755439780A20992AF77
:10054D00A2AF9209C2AF75C7AA75C7555397BFA27F
:10055D000992AFE596548060FAA2AF9209C2AF75C9
:10056D00C7AA75C7555396FBA20992AFA2AF9209C0
:10057D00C2AF75C7AA75C755439602A20992AF02BD
:10058D0006B9A2AF9209C2AF75C7AA75C7555397E1
:10059D007FA20992AFA2AF9209C2AF75C7AA75C764
:1005AD0055439740A20992AFE596544060FAA2AF29
:1005BD009209C2AF75C7AA75C7555396FBA209928A
:1005CD00AFA2AF9209C2AF75C7AA75C755439602C0
:1005DD00A20992AF0206B9A2AF9209C2AF75C7AA1E
:1005ED0075C75553977FA20992AFA2AF9209C2AFBB
:1005FD0075C7AA75C7555397BFA20992AFE5965413
:10060D000860FAA2AF9209C2AF75C7AA75C7555354
:10061D0096FBA20992AFA2AF9209C2AF75C7AA7598
:10062D00C755439602A20992AF0206B9A2AF92092D
:10063D00C2AF75C7AA75C755439720A20992AFE5FA
:10064D0096542060FAA2AF9209C2AF75C7AA75C7BA
:10065D00555396FBA20992AFA2AF9209C2AF75C7CF
:10066D00AA75C7555396FDA20992AF803FA2AF92CE
:10067D0009C2AF75C7AA75C755439710A20992AFA6
:10068D00E596541060FAA2AF9209C2AF75C7AA756C
:10069D00C755439604A20992AFA2AF9209C2AF7596
:1006AD00C7AA75C7555396FDA20992AFE597540198
:0506BD00640160F82259
:100D8F0075985243892053877F538EEF53C4DFAB3F
:100D9F0007AA06A905A804E4FF7EE1FDFC12039B48
:080DAF00EFF404F58DD28E2251
:100D1100759852438920438780538EEF53C4DFABCC
:100D210007AA06A905A8047F007EC27D017C0012E6
:0A0D3100039BEFF404F58DD28E222F
:100D3B0075985243892053877F438E1053C4DFAB82
:100D4B0007AA06A905A8047F007E8C7D0A7C0012E9
:0A0D5B00039BEFF404F58DD28E2205
:100D6500759852438920438780438E1053C4DFAB67
:100D750007AA06A905A8047F007E187D157C001228
:0A0D8500039BEFF404F58DD28E22DB
:100971008F3E8E3D8D3C8C3B75985253877F53C47F
:10098100F843C420AB3EAA3DA93CA83B7F007E8C26
:100991007D0A7C0012039BC3E49FFFE49EFE740169
:1009A1009DFDE49CFC780812043E8FC6AB3EAA3D37
:1009B100A93CA83B7F007E8C7D0A7C0012039BC36F
:1009C100E49FFFE49EFE74019DFDE49CFCEFE48F37
:0509D100C543C408222B
:1009D6008F428E418D408C3F75985243878053C419
:1009E600F843C420AB42AA41A940A83F7F007E1825
:1009F6007D157C0012039BC3E49FFFE49EFE7401F9
:100A06009DFDE49CFC780812043E8FC6AB42AA41C9
:100A1600A940A83F7F007E187D157C0012039BC36A
:100A2600E49FFFE49EFE74019DFDE49CFCEFE48FD1
:050A3600C543C40822C5
:100A9E008F468E458D448C4375F85253C4F8AB4641
:100AAE00AA45A944A8437F007E187D157C00120339
:100ABE009BC3E49FFFE49EFE74019DFDE49CFC78C5
:100ACE000812043E8FC6AB46AA45A944A8437F0030
:100ADE007E187D157C0012039BC3E49FFFE49EFEEF
:0F0AEE0074019DFDE49CFCEFE48FC543C4082216
:070E82003098FDAF99C29802
:010E89002246
:080E8A00C2998F993099FD22F5
:070E920030F8FDAF9AC2F831
:010E99002236
:080E9A00C2F98F9A30F9FD2224
:100E7000E4F5B1F5B2F5B3F5B4F5B5F5B6F5ACF505
:020E8000AD22A1
:100DFF0075C7AA75C755A2AF9209C2AF75C7AA75B5
:0A0E0F00C755439F80A20992AF224D
:040EA20043B408222B
:060A3B00E55724F8F55711
:100A4100F812047600000000E47FFF7EFFFDFCA8A1
:100A51005712045DC312042D503CE5572404F812CB
:100A61000451E4FAF9F8EF2401FFEA3EFEE93DFD05
:100A7100E83CFCE5572404F812046AA85712045113
:100A8100E4F8EF2401FFEA3EFEE93DFDE83CFCA865
:060A91005712046A80B256
:070A9700E5572408F5572282
:100DDE00538EF7438901D28CEF4E6012758AEE75F1
:100DEE008CFF308DFDC28DEF1F70011E80EAC28C0C
:010DFE0022D2
:100C49008F0F8E0E8D0D8C0C538EF7438901D28C2C
:100C5900E4FFFEFDFCAB0FAA0EA90DA80CC31204FC
:100C69002D6025758ACD758CF8308DFDC28D74FF88
:100C7900250FF50FE50E34FFF50EE50D34FFF50DE3
:0B0C8900E50C34FFF50C80C8C28C2283
:100C94008F4A8E498D488C47538EEF438910D28EEC
:100CA400E4FFFEFDFCAB4AAA49A948A847C31204C5
:100CB4002D6025758BCD758DF8308FFDC28F74FF37
:100CC400254AF54AE54934FFF549E54834FFF54836
:0B0CD400E54734FFF54780C8C28E22C0
:100BFB008F4E8E4D8D4C8C4B53C9BF53C9DF43C9A0
:100C0B0010D2CAE4FFFEFDFCAB4EAA4DA94CA84B7B
:100C1B00C312042D602575CC6675CDEA30CFFDC2AD
:100C2B00CF74FF254EF54EE54D34FFF54DE54C34B5
:0E0C3B00FFF54CE54B34FFF54B80C8C2CA22D2
:100BAB008F528E518D508C4F75C40243C408E4FF95
:100BBB00FEFDFCAB52AA51A950A84FC312042D60E5
:100BCB002B75C56675C6EAE5C45410641070F853EE
:100BDB00C4EF74FF2552F552E55134FFF551E55042
:100BEB0034FFF550E54F34FFF54F80C253C4F72265
:100B55008F568E558D548C53538FFB538FFD538F6A
:100B6500FEE4F586538FDF438F08E4FFFEFDFCAB03
:100B750056AA55A954A853C312042D6025E58F54D0
:100B850010641070F8538FEF74FF2556F556E55530
:100B950034FFF555E55434FFF554E55334FFF5536B
:060BA50080C8538FF72207
:1006C2000A3D3D3D3D3D3D3D3D3D3D3D3D3D3D3D8B
:1006D2003D3D3D3D3D3D3D3D3D3D3D3D3D3D3D3D48
:1006E2003D3D3D3D3D3D3D3D3D3D3D3D3D3D3D3D38
:1006F2003D3D3D3D3D3D3D3D3D3D3D3D3D3D3D3D28
:100702003D3D3D3D3D000A2A2020436F70797269CC
:100712006768742863292032303135204E75766F30
:10072200746F6E20546563686E6F6C6F67792043D7
:100732006F72702E20416C6C20726967687473202E
:1007420072657365727665642E2020000A2A202065
:10075200436F6E7461637420452D4D61696C3A205C
:100762004D6963726F432D38626974406E75766F9E
:10077200746F6E2E636F6D20202020202020202099
:100782002020202020202020202020202020202067
:1007920020000A2A202044656D6F20566572736915
:1007A2006F6E20203A202532642E2532642E2532A7
:1007B20064000A2A202046696E69736865642044D1
:1007C200617465203A202532642E2532642E25324A
:0207D2006400C1
:100AFD007BFF7A0679C21200657BFF7A07790812AF
:100B0D0000657BFF7A07794E1200657BFF7A0779C6
:100B1D0094750F00751001E4F511F512F513F51428
:100B2D001200657BFF7A0779B4750F077510DF75B5
:100B3D0011007512057513007514011200657BFF08
:080B4D007A0679C2120065224C
:03000000020E19D4
:100E1900787FE4F6D8FD9000007FFF7E01E4F0A31F
:0A0E2900DFFCDEFA75815702086F46
:10035F0075F008758200EF2FFFEE33FECD33CDCC55
:10036F0033CCC58233C5829BED9AEC99E5829840D8
:10037F000CF582EE9BFEED9AFDEC99FC0FD5F0D6B5
:10038F00E4CEFBE4CDFAE4CCF9A88222B800C1B9DF
:10039F000059BA002DEC8BF084CFCECDFCE5F0CB1D
:1003AF00F97818EF2FFFEE33FEED33FDEC33FCEB56
:1003BF0033FB10D703994004EB99FB0FD8E5E4F911
:1003CF00FA227818EF2FFFEE33FEED33FDEC33FCFE
:1003DF00C933C910D7059BE99A4007EC9BFCE99AF2
:1003EF00F90FD8E0E4C9FAE4CCFB2275F010EF2F37
:1003FF00FFEE33FEED33FDCC33CCC833C810D70737
:10040F009BEC9AE899400AED9BFDEC9AFCE899F871
:0E041F000FD5F0DAE4CDFBE4CCFAE4C8F92204
:10042D00EB9FF5F0EA9E42F0E99D42F0E89C45F025
:01043D00229C
:10043E00E8600FECC313FCED13FDEE13FEEF13FF9C
:03044E00D8F122C0
:0C045100E6FC08E6FD08E6FE08E6FF22D7
:0D045D00E6FB08E6F908E6FA08E6CBF8220F
:0C046A00ECF608EDF608EEF608EFF622BE
:10047600D083D082E493F608740193F6087402934D
:09048600F608740393F674047384
:10000300E51B240FF8E6051B22780C300702780F56
:10001300E475F0011204E702048F2000EB7F2ED277
:10002300008018EF540F2490D43440D4FF30040BD5
:10003300EF24BFB41A0050032461FFE51C600215CE
:100043001C051FE51F7002051E30070D780CE475B3
:10005300F0011204E7EF0204D5020DB77403D207CF
:100063008003E4C207F51B8B0C8A0D890EE4F51C93
:10007300F51EF51FE51C60077F2012003E80F57515
:100083001DFFC201C200C202C203C205C206C208EA
:1000930012000CFF700D3007057F0012004FAF1FD9
:1000A300AE1E22B4255FC2D5C20412000CFF24D0B9
:1000B300B40A00501A75F00A781C30D50508B6FF4B
:1000C3000106C6A426F620D5047002D20380D924E3
:1000D300CFB41A00EF5004C2E5D20402024FD2019A
:1000E30080C6D20080C0D20280BCD2D580BAD205ED
:1000F30080B47F2012003E2002077401B51C00402B
:10010300F1120003FF12003E020077D208D20680EC
:1001130095120003FB120003FA120003F94A4B7015
:100123000679207A037BFF20022EE51C602A7E00DD
:100133008E827583001204A860060EEE651D70F0B2
:10014300C2D5EBC0E0EAC0E0E9C0E0EE120296D00F
:10015300E0F9D0E0FAD0E0FB12048FFF60AAEBC015
:10016300E0EAC0E0E9C0E012003ED0E02401F9D0AB
:10017300E03400FAD0E0FBE51D0460DCD51DD98036
:10018300877BFF7A027992D202809C791080027970
:1001930008C206C2088008D2D5790A8004790AC247
:1001A300D5E51D047002F51DE4FAFDFEFF12000300
:1001B300FC7B08200113120003FD7B1030000A12A0
:1001C3000003FE120003FF7B20EC3382D592D5504F
:1001D30013C3E43000069FFFE49EFEE42001039D69
:1001E300FDE49CFCE4CBF8C201EC700CCFCECDCC8B
:1001F300E824F8F870F38017C3EF33FFEE33FEED16
:1002030033FDEC33FCEB33FB994002FB0FD8E9EBF6
:10021300300105F8D0E0C448B201C0E00AEC4D4E0D
:100223004F78207B0070C2EAB51D0040BCC0E012CD
:100233000298D0F0D0E0200104C4C0E0C4B201C0F1
:10024300F0120027D0F0D5F0EB0200771204F7018B
:100253001453018E5800E54C00E14201924F019A7C
:0F02630044019A4900FA4301A0550184460184E1
:100272004501844703405000E92D00ED2E01102B6B
:1002820000F123010E2003292A00A94800000108D9
:100292003F3F3F00790AA2D5200314300509B91067
:1002A200020404B9080104A2D52006025001042068
:1002B20002689202B51C005034C0E07F203003195E
:1002C2007F30A20272067205500F1202EFC202C202
:1002D20006C205C2087F30800F300503E9C0E01274
:1002E200003E300503D0E0F9D0E0B51CCC30051754
:1002F2007F30B9100C12003E7F583004077F78809F
:1003020003B9080312003E3002057F2D02003E7F32
:10031200202008F87F2B2006F322920280CF286E3D
:10032200756C6C2900D2011200033001F8C2017809
:100332001C30D50108F60200A92D5043495812007D
:10034200032403B405004001E490033B9312002F01
:0D035200743A12002FD203751C0402018EB4
:10048F00BB010689828A83E0225002E722BBFE026B
:09049F00E32289828A83E493229E
:1004A800BB010CE58229F582E5833AF583E0225009
:1004B80006E92582F8E622BBFE06E92582F8E22253
:0D04C800E58229F582E5833AF583E493226D
:1004D500BB010689828A83F0225002F722BBFE0106
:0204E500F32200
:1004E700FAE6FB0808E6F925F0F618E6CA3AF62216
:1004F700D083D082F8E4937012740193700DA3A394
:1005070093F8740193F5828883E4737402936860A7
:06051700EFA3A3A380DFA7
:100DB700EFB40A07740D120DC2740A309811A8997E
:100DC700B8130CC2983098FDA899C298B811F6309C
:070DD70099FDC299F5992274
:00000001FF
