:070DC30001410002420000A3
:100C61007522017523017F0212051D120D9E1208C6
:100C71006EEF6401700B632201E52224FF928380F1
:100C8100ED12086EEF640A70E5632301E52324FF8A
:040C9100928480DAEF
:010C9500223C
:100D9E0053B1F743B20853B1EF43B21043AC105303
:030DAE00ADEF2284
:10086E00E4F524E54114601714603D146069240317
:10087E00706D20B46DE4F542F5437541018063203F
:10088E00B4210543E54370020542C39402E5429448
:10089E000040037541027F0A7E007D007C00120B32
:1008AE00CB803FE4F541803A30B408752401E4F57D
:1008BE0041802F0543E54370020542C394C8E542CB
:1008CE009400400675240A7541037F0A7E007D0060
:1008DE007C00120BCB800B30B408E4F5418003E4AE
:0408EE00F541AF24FD
:0108F20022E3
:10051D00EF14606E14700302063914700302067A2C
:10052D001470030205E4240460030206B9A2AF921D
:10053D0009C2AF75C7AA75C755439780A20992AF77
:10054D00A2AF9209C2AF75C7AA75C7555397BFA27F
:10055D000992AFE596548060FAA2AF9209C2AF75C9
:10056D00C7AA75C7555396FBA20992AFA2AF9209C0
:10057D00C2AF75C7AA75C755439602A20992AF02BD
:10058D0006B9A2AF9209C2AF75C7AA75C7555397E1
:10059D007FA20992AFA2AF9209C2AF75C7AA75C764
:1005AD0055439740A20992AFE596544060FAA2AF29
:1005BD009209C2AF75C7AA75C7555396FBA209928A
:1005CD00AFA2AF9209C2AF75C7AA75C755439602C0
:1005DD00A20992AF0206B9A2AF9209C2AF75C7AA1E
:1005ED0075C75553977FA20992AFA2AF9209C2AFBB
:1005FD0075C7AA75C7555397BFA20992AFE5965413
:10060D000860FAA2AF9209C2AF75C7AA75C7555354
:10061D0096FBA20992AFA2AF9209C2AF75C7AA7598
:10062D00C755439602A20992AF0206B9A2AF92092D
:10063D00C2AF75C7AA75C755439720A20992AFE5FA
:10064D0096542060FAA2AF9209C2AF75C7AA75C7BA
:10065D00555396FBA20992AFA2AF9209C2AF75C7CF
:10066D00AA75C7555396FDA20992AF803FA2AF92CE
:10067D0009C2AF75C7AA75C755439710A20992AFA6
:10068D00E596541060FAA2AF9209C2AF75C7AA756C
:10069D00C755439604A20992AFA2AF9209C2AF7596
:1006AD00C7AA75C7555396FDA20992AFE597540198
:0506BD00640160F82259
:100D140075985243892053877F538EEF53C4DFABBA
:100D240007AA06A905A804E4FF7EE1FDFC12039BC3
:080D3400EFF404F58DD28E22CC
:100C9600759852438920438780538EEF53C4DFAB48
:100CA60007AA06A905A8047F007EC27D017C001262
:0A0CB600039BEFF404F58DD28E22AB
:100CC00075985243892053877F438E1053C4DFABFE
:100CD00007AA06A905A8047F007E8C7D0A7C001265
:0A0CE000039BEFF404F58DD28E2281
:100CEA00759852438920438780438E1053C4DFABE3
:100CFA0007AA06A905A8047F007E187D157C0012A4
:0A0D0A00039BEFF404F58DD28E2256
:1008F3008F1F8E1E8D1D8C1C75985253877F53C47A
:10090300F843C420AB1FAA1EA91DA81C7F007E8C20
:100913007D0A7C0012039BC3E49FFFE49EFE7401E7
:100923009DFDE49CFC780812043E8FC6AB1FAA1EF3
:10093300A91DA81C7F007E8C7D0A7C0012039BC32B
:10094300E49FFFE49EFE74019DFDE49CFCEFE48FB5
:05095300C543C40822A9
:100958008F2C8E2B8D2A8C2975985243878053C4EF
:10096800F843C420AB2CAA2BA92AA8297F007E18FB
:100978007D157C0012039BC3E49FFFE49EFE740177
:100988009DFDE49CFC780812043E8FC6AB2CAA2B74
:10099800A92AA8297F007E187D157C0012039BC315
:1009A800E49FFFE49EFE74019DFDE49CFCEFE48F50
:0509B800C543C4082244
:100A20008F308E2F8D2E8C2D75F85253C4F8AB302D
:100A3000AA2FA92EA82D7F007E187D157C001203F9
:100A40009BC3E49FFFE49EFE74019DFDE49CFC7843
:100A50000812043E8FC6AB30AA2FA92EA82D7F0006
:100A60007E187D157C0012039BC3E49FFFE49EFE6D
:0F0A700074019DFDE49CFCEFE48FC543C4082294
:070DCB003098FDAF99C298BA
:010DD20022FE
:080DD300C2998F993099FD22AD
:070DDB0030F8FDAF9AC2F8E9
:010DE20022EE
:080DE300C2F98F9A30F9FD22DC
:100DB100E4F5B1F5B2F5B3F5B4F5B5F5B6F5ACF5C5
:020DC100AD2261
:100D840075C7AA75C755A2AF9209C2AF75C7AA7530
:0A0D9400C755439F80A20992AF22C9
:040DEB0043B40822E3
:0609BD00E54424F8F544B6
:1009C300F812047600000000E47FFF7EFFFDFCA820
:1009D3004412045DC312042D503CE5442404F81270
:1009E3000451E4FAF9F8EF2401FFEA3EFEE93DFD84
:1009F300E83CFCE5442404F812046AA844120451B8
:100A0300E4F8EF2401FFEA3EFEE93DFDE83CFCA8E3
:060A13004412046A80B2E7
:070A1900E5442408F5442226
:100D6300538EF7438901D28CEF4E6012758AEE756C
:100D73008CFF308DFDC28DEF1F70011E80EAC28C87
:010D8300224D
:100BCB008F288E278D268C25538EF7438901D28C47
:100BDB00E4FFFEFDFCAB28AA27A926A825C3120417
:100BEB002D6025758ACD758CF8308DFDC28D74FF07
:100BFB002528F528E52734FFF527E52634FFF526CC
:0B0C0B00E52534FFF52580C8C28C22CF
:100C16008F348E338D328C31538EEF438910D28EC2
:100C2600E4FFFEFDFCAB34AA33A932A831C312049B
:100C36002D6025758BCD758DF8308FFDC28F74FFB5
:100C46002534F534E53334FFF533E53234FFF53238
:0B0C5600E53134FFF53180C8C28E226A
:100B7D008F388E378D368C3553C9BF53C9DF43C976
:100B8D0010D2CAE4FFFEFDFCAB38AA37A936A83552
:100B9D00C312042D602575CC6675CDEA30CFFDC22C
:100BAD00CF74FF2538F538E53734FFF537E53634A2
:0E0BBD00FFF536E53534FFF53580C8C2CA2293
:100B2D008F3C8E3B8D3A8C3975C40243C408E4FF6B
:100B3D00FEFDFCAB3CAA3BA93AA839C312042D60BB
:100B4D002B75C56675C6EAE5C45410641070F8536C
:100B5D00C4EF74FF253CF53CE53B34FFF53BE53A2E
:100B6D0034FFF53AE53934FFF53980C253C4F72225
:100AD7008F408E3F8D3E8C3D538FFB538FFD538F41
:100AE700FEE4F586538FDF438F08E4FFFEFDFCAB82
:100AF70040AA3FA93EA83DC312042D6025E58F54A7
:100B070010641070F8538FEF74FF2540F540E53FF0
:100B170034FFF53FE53E34FFF53EE53D34FFF53D57
:060B270080C8538FF72285
:1006C2000A3D3D3D3D3D3D3D3D3D3D3D3D3D3D3D8B
:1006D2003D3D3D3D3D3D3D3D3D3D3D3D3D3D3D3D48
:1006E2003D3D3D3D3D3D3D3D3D3D3D3D3D3D3D3D38
:1006F2003D3D3D3D3D3D3D3D3D3D3D3D3D3D3D3D28
:100702003D3D3D3D3D000A2A2020436F70797269CC
:100712006768742863292032303135204E75766F30
:10072200746F6E20546563686E6F6C6F67792043D7
:100732006F72702E20416C6C20726967687473202E
:1007420072657365727665642E2020000A2A202065
:10075200436F6E7461637420452D4D61696C3A205C
:100762004D6963726F432D38626974406E75766F9E
:10077200746F6E2E636F6D20202020202020202099
:100782002020202020202020202020202020202067
:1007920020000A2A202044656D6F20566572736915
:1007A2006F6E20203A202532642E2532642E2532A7
:1007B20064000A2A202046696E69736865642044D1
:1007C200617465203A202532642E2532642E25324A
:0207D2006400C1
:100A7F007BFF7A0679C21200657BFF7A077908122D
:100A8F0000657BFF7A07794E1200657BFF7A077945
:100A9F0094750B00750C01E4F50DF50EF50FF510BF
:100AAF001200657BFF7A0779B4750B07750CDF753C
:100ABF000D00750E05750F007510011200657BFF97
:080ACF007A0679C212006522CB
:030000000207D420
:1007D400787FE4F6D8FD9000007FFF7E01E4F0A36B
:0A07E400DFFCDEFA758144020829EB
:1007EE00020C61E493A3F8E493A34003F68001F2B4
:1007FE0008DFF48029E493A3F85407240CC8C3330C
:10080E00C4540F4420C8834004F456800146F6DFDA
:10081E00E4800B0102040810204080900DC3E47E9A
:10082E00019360BCA3FF543F30E509541FFEE493CF
:10083E00A360010ECF54C025E060A840B8E493A396
:10084E00FAE493A3F8E493A3C8C582C8CAC583CAC1
:10085E00F0A3C8C582C8CAC583CADFE9DEE780BE79
:010DCA000028
:10035F0075F008758200EF2FFFEE33FECD33CDCC55
:10036F0033CCC58233C5829BED9AEC99E5829840D8
:10037F000CF582EE9BFEED9AFDEC99FC0FD5F0D6B5
:10038F00E4CEFBE4CDFAE4CCF9A88222B800C1B9DF
:10039F000059BA002DEC8BF084CFCECDFCE5F0CB1D
:1003AF00F97818EF2FFFEE33FEED33FDEC33FCEB56
:1003BF0033FB10D703994004EB99FB0FD8E5E4F911
:1003CF00FA227818EF2FFFEE33FEED33FDEC33FCFE
:1003DF00C933C910D7059BE99A4007EC9BFCE99AF2
:1003EF00F90FD8E0E4C9FAE4CCFB2275F010EF2F37
:1003FF00FFEE33FEED33FDCC33CCC833C810D70737
:10040F009BEC9AE899400AED9BFDEC9AFCE899F871
:0E041F000FD5F0DAE4CDFBE4CCFAE4C8F92204
:10042D00EB9FF5F0EA9E42F0E99D42F0E89C45F025
:01043D00229C
:10043E00E8600FECC313FCED13FDEE13FEEF13FF9C
:03044E00D8F122C0
:0C045100E6FC08E6FD08E6FE08E6FF22D7
:0D045D00E6FB08E6F908E6FA08E6CBF8220F
:0C046A00ECF608EDF608EEF608EFF622BE
:10047600D083D082E493F608740193F6087402934D
:09048600F608740393F674047384
:10000300E517240BF8E60517227808300702780B6A
:10001300E475F0011204E702048F2000EB7F2ED277
:10002300008018EF540F2490D43440D4FF30040BD5
:10003300EF24BFB41A0050032461FFE518600215D2
:1000430018051BE51B7002051A30070D7808E475C7
:10005300F0011204E7EF0204D5020D3C7403D2074A
:100063008003E4C207F5178B088A09890AE4F518A7
:10007300F51AF51BE51860077F2012003E80F57521
:1000830019FFC201C200C202C203C205C206C208EE
:1000930012000CFF700D3007057F0012004FAF1BDD
:1000A300AE1A22B4255FC2D5C20412000CFF24D0BD
:1000B300B40A00501A75F00A781830D50508B6FF4F
:1000C3000106C6A426F620D5047002D20380D924E3
:1000D300CFB41A00EF5004C2E5D20402024FD2019A
:1000E30080C6D20080C0D20280BCD2D580BAD205ED
:1000F30080B47F2012003E2002077401B51800402F
:10010300F1120003FF12003E020077D208D20680EC
:1001130095120003FB120003FA120003F94A4B7015
:100123000679207A037BFF20022EE518602A7E00E1
:100133008E827583001204A860060EEE651970F0B6
:10014300C2D5EBC0E0EAC0E0E9C0E0EE120296D00F
:10015300E0F9D0E0FAD0E0FB12048FFF60AAEBC015
:10016300E0EAC0E0E9C0E012003ED0E02401F9D0AB
:10017300E03400FAD0E0FBE5190460DCD519D9803E
:10018300877BFF7A027992D202809C791080027970
:1001930008C206C2088008D2D5790A8004790AC247
:1001A300D5E519047002F519E4FAFDFEFF12000308
:1001B300FC7B08200113120003FD7B1030000A12A0
:1001C3000003FE120003FF7B20EC3382D592D5504F
:1001D30013C3E43000069FFFE49EFEE42001039D69
:1001E300FDE49CFCE4CBF8C201EC700CCFCECDCC8B
:1001F300E824F8F870F38017C3EF33FFEE33FEED16
:1002030033FDEC33FCEB33FB994002FB0FD8E9EBF6
:10021300300105F8D0E0C448B201C0E00AEC4D4E0D
:100223004F78207B0070C2EAB5190040BCC0E012D1
:100233000298D0F0D0E0200104C4C0E0C4B201C0F1
:10024300F0120027D0F0D5F0EB0200771204F7018B
:100253001453018E5800E54C00E14201924F019A7C
:0F02630044019A4900FA4301A0550184460184E1
:100272004501844703405000E92D00ED2E01102B6B
:1002820000F123010E2003292A00A94800000108D9
:100292003F3F3F00790AA2D5200314300509B91067
:1002A200020404B9080104A2D52006025001042068
:1002B20002689202B518005034C0E07F2030031962
:1002C2007F30A20272067205500F1202EFC202C202
:1002D20006C205C2087F30800F300503E9C0E01274
:1002E200003E300503D0E0F9D0E0B518CC30051758
:1002F2007F30B9100C12003E7F583004077F78809F
:1003020003B9080312003E3002057F2D02003E7F32
:10031200202008F87F2B2006F322920280CF286E3D
:10032200756C6C2900D2011200033001F8C2017809
:100332001830D50108F60200A92D50434958120081
:10034200032403B405004001E490033B9312002F01
:0D035200743A12002FD20375180402018EB8
:10048F00BB010689828A83E0225002E722BBFE026B
:09049F00E32289828A83E493229E
:1004A800BB010CE58229F582E5833AF583E0225009
:1004B80006E92582F8E622BBFE06E92582F8E22253
:0D04C800E58229F582E5833AF583E493226D
:1004D500BB010689828A83F0225002F722BBFE0106
:0204E500F32200
:1004E700FAE6FB0808E6F925F0F618E6CA3AF62216
:1004F700D083D082F8E4937012740193700DA3A394
:1005070093F8740193F5828883E4737402936860A7
:06051700EFA3A3A380DFA7
:100D3C00EFB40A07740D120D47740A309811A89974
:100D4C00B8130CC2983098FDA899C298B811F63017
:070D5C0099FDC299F59922EF
:00000001FF
