:07145900015000024E0000EB
:100EE900E4F50BF50AF509F508F50CF50D7F021285
:100EF9000B981214111213CF53B1F743B208120011
:100F09002E8E0C8F0DAC0CAD0DE41203017B0A7A09
:100F19002879A0783B1201568F0B8E0A8D098C080F
:100F29007F327E007D007C001212DFE4FBFA79A09B
:100F39007840AF0BAE0AAD09AC0812025FE4FBFAC8
:100F490079207841120156E4FBFA7980783F120042
:100F59006512033A8F507F327E007D007C001212A9
:030F6900DF809B8B
:010F6C002262
:1014110053E17F43E80743B18053B27F43F68053E2
:0C142100E1BF43E12053E1EF43E1012271
:1013CF00D2AF439B80D2CA43C94053C9CF53C8FE43
:1013DF0043C98043C90875CBE5E4F5CAF5CCF5CD13
:0113EF0022DB
:10002E00E4FDFCC2EFD2EE30EFFDAFC37C00AD07B6
:10003E007E00ED7802C333CE33CED8F9FDAC06AFD9
:09004E00C2EF4205E4AE04AF0567
:010057002286
:03002B000211F7C8
:1011F700C0E0C0F0C083C082C0D075D000C000C0BE
:1012070001C002C003C004C005C006C007C2CFE5C5
:101217005075F014A485F04EF54FD283FFAE4E12F1
:1012270013F0C283D007D006D005D004D003D00274
:0F123700D001D000D0D0D082D083D0F0D0E03220
:03005B0002005848
:03005800C2EF32C2
:100B9800EF14606E147003020CB4147003020CF5A9
:100BA800147003020C5F24046003020D34A2AF9298
:100BB80009C2AF75C7AA75C755439780A20992AFF6
:100BC800A2AF9209C2AF75C7AA75C7555397BFA2FE
:100BD8000992AFE596548060FAA2AF9209C2AF7548
:100BE800C7AA75C7555396FBA20992AFA2AF92093F
:100BF800C2AF75C7AA75C755439602A20992AF023C
:100C08000D34A2AF9209C2AF75C7AA75C7555397DD
:100C18007FA20992AFA2AF9209C2AF75C7AA75C7E2
:100C280055439740A20992AFE596544060FAA2AFA7
:100C38009209C2AF75C7AA75C7555396FBA2099208
:100C4800AFA2AF9209C2AF75C7AA75C7554396023E
:100C5800A20992AF020D34A2AF9209C2AF75C7AA1A
:100C680075C75553977FA20992AFA2AF9209C2AF39
:100C780075C7AA75C7555397BFA20992AFE5965491
:100C88000860FAA2AF9209C2AF75C7AA75C75553D3
:100C980096FBA20992AFA2AF9209C2AF75C7AA7517
:100CA800C755439602A20992AF020D34A2AF92092A
:100CB800C2AF75C7AA75C755439720A20992AFE579
:100CC80096542060FAA2AF9209C2AF75C7AA75C739
:100CD800555396FBA20992AFA2AF9209C2AF75C74E
:100CE800AA75C7555396FDA20992AF803FA2AF924D
:100CF80009C2AF75C7AA75C755439710A20992AF25
:100D0800E596541060FAA2AF9209C2AF75C7AA75EA
:100D1800C755439604A20992AFA2AF9209C2AF7514
:100D2800C7AA75C7555396FDA20992AFE597540116
:050D3800640160F822D7
:1000030075985243892053877F538EEF53C4DFABD8
:1000130007AA06A905A804E4FF7EE1FDFC1205F189
:08002300EFF404F58DD28E22EA
:10132A00759852438920438780538EEF53C4DFABAD
:10133A0007AA06A905A8047F007EC27D017C0012C7
:0A134A0005F1EFF404F58DD28E22B8
:1013540075985243892053877F438E1053C4DFAB63
:1013640007AA06A905A8047F007E8C7D0A7C0012CA
:0A13740005F1EFF404F58DD28E228E
:10137E00759852438920438780438E1053C4DFAB48
:10138E0007AA06A905A8047F007E187D157C001209
:0A139E0005F1EFF404F58DD28E2264
:100F6D008F158E148D138C1275985253877F53C421
:100F7D00F843C420AB15AA14A913A8127F007E8CC8
:100F8D007D0A7C001205F1C3E49FFFE49EFE74010F
:100F9D009DFDE49CFC78081206A28FC6AB15AA1421
:100FAD00A913A8127F007E8C7D0A7C001205F1C367
:100FBD00E49FFFE49EFE74019DFDE49CFCEFE48F35
:050FCD00C543C4082229
:100FD2008F198E188D178C1675985243878053C4BB
:100FE200F843C420AB19AA18A917A8167F007E18C7
:100FF2007D157C001205F1C3E49FFFE49EFE74019F
:101002009DFDE49CFC78081206A28FC6AB19AA18B3
:10101200A917A8167F007E187D157C001205F1C362
:10102200E49FFFE49EFE74019DFDE49CFCEFE48FCF
:05103200C543C40822C3
:10109A008F1D8E1C8D1B8C1A75F85253C4F8AB1D0C
:1010AA00AA1CA91BA81A7F007E187D157C001205B0
:1010BA00F1C3E49FFFE49EFE74019DFDE49CFC786D
:1010CA00081206A28FC6AB1DAA1CA91BA81A7F006C
:1010DA007E187D157C001205F1C3E49FFFE49EFE95
:0F10EA0074019DFDE49CFCEFE48FC543C4082214
:071461003098FDAF99C2981D
:011468002261
:08146900C2998F993099FD2210
:0714710030F8FDAF9AC2F84C
:011478002251
:08147900C2F98F9A30F9FD223F
:10144700E4F5B1F5B2F5B3F5B4F5B5F5B6F5ACF528
:02145700AD22C4
:10142D0075C7AA75C755A2AF9209C2AF75C7AA7580
:0A143D00C755439F80A20992AF2219
:0414810043B4082246
:06103700E51E24F8F51E81
:10103D00F81206DA00000000E47FFF7EFFFDFCA839
:10104D001E1206C1C3120691503CE51E2404F8126F
:10105D0006B5E4FAF9F8EF2401FFEA3EFEE93DFD9D
:10106D00E83CFCE51E2404F81206CEA81E1206B5B7
:10107D00E4F8EF2401FFEA3EFEE93DFDE83CFCA863
:06108D001E1206CE80B227
:07109300E51E2408F51E22F2
:1013F000538EF7438901D28CEF4E6012758AEE75D9
:101400008CFF308DFDC28DEF1F70011E80EAC28CF3
:0114100022B9
:101294008F418E408D3F8C3E538EF7438901D28C13
:1012A400E4FFFEFDFCAB41AA40A93FA83EC31206E1
:1012B400916025758ACD758CF8308DFDC28D74FFD3
:1012C4002541F541E54034FFF540E53F34FFF53F66
:0B12D400E53E34FFF53E80C8C28C22CE
:1012DF008F118E108D0F8C0E538EEF438910D28E7F
:1012EF00E4FFFEFDFCAB11AA10A90FA80EC3120656
:1012FF00916025758BCD758DF8308FFDC28F74FF82
:10130F002511F511E51034FFF510E50F34FFF50F3A
:0B131F00E50E34FFF50E80C8C28E22E0
:101246008F458E448D438C4253C9BF53C9DF43C972
:1012560010D2CAE4FFFEFDFCAB45AA44A943A8424E
:10126600C3120691602575CC6675CDEA30CFFDC2F6
:10127600CF74FF2545F545E54434FFF544E5433491
:0E128600FFF543E54234FFF54280C8C2CA229C
:1011A7008F498E488D478C4675C40243C408E4FFB7
:1011B700FEFDFCAB49AA48A947A846C312069160A1
:1011C7002B75C56675C6EAE5C45410641070F853EC
:1011D700C4EF74FF2549F549E54834FFF548E5476D
:1011E70034FFF547E54634FFF54680C253C4F7227E
:101151008F4D8E4C8D4B8C4A538FFB538FFD538F8C
:10116100FEE4F586538FDF438F08E4FFFEFDFCAB01
:101171004DAA4CA94BA84AC31206916025E58F548C
:1011810010641070F8538FEF74FF254DF54DE54C49
:1011910034FFF54CE54B34FFF54BE54A34FFF54A96
:0611A10080C8538FF72205
:100D3D000A3D3D3D3D3D3D3D3D3D3D3D3D3D3D3D09
:100D4D003D3D3D3D3D3D3D3D3D3D3D3D3D3D3D3DC6
:100D5D003D3D3D3D3D3D3D3D3D3D3D3D3D3D3D3DB6
:100D6D003D3D3D3D3D3D3D3D3D3D3D3D3D3D3D3DA6
:100D7D003D3D3D3D3D000A2A2020436F707972694B
:100D8D006768742863292032303135204E75766FAF
:100D9D00746F6E20546563686E6F6C6F6779204356
:100DAD006F72702E20416C6C2072696768747320AD
:100DBD0072657365727665642E2020000A2A2020E4
:100DCD00436F6E7461637420452D4D61696C3A20DB
:100DDD004D6963726F432D38626974406E75766F1D
:100DED00746F6E2E636F6D20202020202020202018
:100DFD0020202020202020202020202020202020E6
:100E0D0020000A2A202044656D6F20566572736993
:100E1D006F6E20203A202532642E2532642E253225
:100E2D0064000A2A202046696E697368656420444F
:100E3D00617465203A202532642E2532642E2532C8
:020E4D0064003F
:1010F9007BFF7A0D793D12078B7BFF7A0D7983127D
:10110900078B7BFF7A0D79C912078B7BFF7A0E79E2
:101119000F752500752601E4F527F528F529F52A27
:1011290012078B7BFF7A0E792F7525077526DF75D8
:101139002700752805752900752A0112078B7BFF81
:081149007A0D793D12078B229B
:03000000020E4F9E
:100E4F00787FE4F6D8FD9000007FFF7E01E4F0A3E9
:0A0E5F00DFFCDEFA758150020EA4DC
:10005E000203A6E86480F8E933E83360110460F027
:10006E00ED33EC337009E8FCE9FDEAFEEBFF220408
:10007E0060DED3EB9FEA9EE99DE8C2E78CF0C2F703
:10008E0095F0400CE8CCF8E9CDF9EACEFAEBCFFBCF
:10009E0012037185D0F05804700320D5B3E80470B4
:1000AE00075002B2D50203B092D5EC0460F7E4CC4F
:1000BE00C0E0C398F8603B94186008400DD0E0FB98
:1000CE00020388E4FBFAC9FC8028E830E406E4C9A0
:1000DE00FBE4CAFCE830E305E4C9CACBFCE85407EC
:1000EE006010F8C3E913F9EA13FAEB13FBEC13FCF7
:1000FE00D8F130F52FC3E49CFCEF9BFFEE9AFEED9A
:10010E0099FDD0E0FBEF4E4D4C701222DB03020343
:10011E00ADEC2CFCEF33FFEE33FEED33FDED30E7AF
:10012E00EB020388EF2BFFEE3AFEED39FDD0E0FB3C
:10013E0050130BBB00030203B0ED13FDEE13FEEFE5
:08014E0013FFEC13FC0203880F
:10015600EC4D6011E8497017ED33EC3304600DE4A3
:10016600FCFFFEFD22E933E8330470F80203A61211
:10017600037158046009E4CC248150062850090212
:1001860003B02840030203ADC0E0EB4A7044B980D7
:1001960006D0E0FB02039CEF4E701CBD8008EBFF0F
:1001A600EAFEE9FD80EBE98DF0A4FEE5F002023FF0
:1001B600E9CDF9EAFEEBFFEF89F0A4FCE5F0CE8984
:1001C600F0A42EFFE435F0CD89F0A42DFEE435F041
:1001D6008067EF4E7005BD80D780C3EF8BF0A4AC6F
:1001E600F0EE8BF0A42CFCE435F0F8EF8AF0A42CAA
:1001F600E5F038FCE433CB8DF0A42CFCE5F03BF8BD
:10020600EE8AF0A42CFCE5F038F8E433CF89F0A4AC
:100216002CFCE5F038CF3400CE89F0A42FFFE5F0B2
:100226003EFEE433C98DF0A42EFEE5F039CD8AF00A
:10023600A42FFFE5F03EFEE43DFD33D0E0FB500782
:100246000BBB000F0203B0EC2CFCEF33FFEE33FECA
:06025600ED33FD020388F8
:10025C000203B0EC5D046005E8590470030203A6C8
:10026C00120371580460F6EC4860F2EC7004FDFE69
:10027C00FF22C860DB2481C85009C3986002500675
:10028C000203AD9850CAF582E9294B4A7005AB823E
:10029C0002039C75F0007C1A7880C3EF9BEE9AEDFC
:1002AC0099400DC3EF9BFFEE9AFEED99FDE842F0ED
:1002BC00DC23ACF0D0E0FFD0E0FED0E0FDAB822040
:1002CC00E7101BEB60BAEC2CFCEF33FFEE33FEEDCA
:1002DC0033FD020388E803F830E705C0F075F00041
:1002EC00EF2FFFEE33FEED33FD40B830E7C280AAAE
:1002FC0075F020800E75F010800575F0087D007E7D
:10030C00007F003392D530D503120683EC334010B6
:10031C00EF33FFEE33FEED33FDEC33FCD5F0ED2285
:0E032C00E5F0247EA2D513CC92E7CDCEFF22C1
:10033A00EDD2E7CD33EC3392D524814006E4FFFEBB
:10034A00FDFC22FCE4CFCECDCC24E0501174FF801A
:10035A00EDC3CC13CCCD13CDCE13CECF13CF0470B7
:07036A00F030D5DE0206832E
:10072900E5392425F8E605392278223007027825AB
:10073900E475F0011206F302055D2000EB7F2ED26D
:10074900008018EF540F2490D43440D4FF30040BA8
:10075900EF24BFB41A0050032461FFE53A60021583
:100769003A053DE53D7002053C30070D7822E475F8
:10077900F0011206F3EF0205A30213A87403D207CE
:100789008003E4C207F5398B228A238924E4F53AE8
:10079900F53CF53DE53A60077F2012076480F57561
:1007A9003BFFC201C200C202C203C205C206C2089F
:1007B900120732FF700D3007057F00120775AF3D34
:1007C900AE3C22B4255FC2D5C204120732FF24D041
:1007D900B40A00501A75F00A783A30D50508B6FF00
:1007E9000106C6A426F620D5047002D20380D924B6
:1007F900CFB41A00EF5004C2E5D204020A62D20152
:1008090080C6D20080C0D20280BCD2D580BAD205BF
:1008190080B47F201207642002077401B53A0040B2
:10082900F1120729FF12076402079DD208D2068038
:1008390095120729FB120729FA120729F94A4B7061
:100849000679597A0B7BFF20022EE53A602A7E0051
:100859008E8275830012057660060EEE653B70F098
:10086900C2D5EBC0E0EAC0E0E9C0E0EE120AC2D0AE
:10087900E0F9D0E0FAD0E0FB12055DFF60AAEBC019
:10088900E0EAC0E0E9C0E0120764D0E02401F9D051
:10089900E03400FAD0E0FBE53B0460DCD53BD980CD
:1008A90087D20280A2120AA560F7E53B7001041203
:1008B90003BBA93B600DE53B600914F53B120B4CEA
:1008C900EF60F3EA30E702F404C3995077EAF425BC
:1008D9003B0430E701E404F53B800D120AA560C131
:1008E900EA053B253B1203BBEA7838F630E701E419
:1008F900253B04D53B0420050114120AC2E4C0E0DB
:10090900120B4C7838E6601320E70714F612074CEF
:10091900802204F6D0E014C0E07F0012074CE53BCA
:100929006007120743153B800B300503120743D0BC
:10093900E002079DD0E00480C5120AA560A0E53B4E
:10094900041203BB7838EAF6E53B2005026001048E
:050959002404120AC293
:10095E0074FF04C0E0120B4C12074CE53B2005025D
:10096E006003120743D0E0B53BE87F451207567887
:10097E0038E67F2B30E7047F2DF404C0E0120764C5
:10098E00D0E075F00A84C0F012074DD0E012074D8A
:10099E0002079D791080027908C206C2088008D22B
:1009AE00D5790A8004790AC2D5E53B047002F53B7D
:1009BE00E4FAFDFEFF120729FC7B08200113120743
:1009CE0029FD7B1030000A120729FE120729FF7B32
:1009DE0020EC3382D592D55013C3E43000069FFF2E
:1009EE00E49EFEE42001039DFDE49CFCE4CBF8C2F2
:1009FE0001EC700CCFCECDCCE824F8F870F3801754
:100A0E00C3EF33FFEE33FEED33FDEC33FCEB33FB84
:100A1E00994002FB0FD8E9EB300105F8D0E0C4484D
:100A2E00B201C0E00AEC4D4E4F78207B0070C2EA56
:100A3E00B53B0040BCC0E0120AC4D0F0D0E02001AB
:100A4E0004C4C0E0C4B201C0F012074DD0F0D5F01E
:100A5E00EB02079D120703083A5309A158080B4CE5
:100A6E0008074209A54F09AD4409AD4908204309BD
:100A7E00B35508E44609424508AE470B7950080FB6
:100A8E002D08132E08362B0817230834200B622A44
:100A9E0007CF480000082EE53BB4FF03753B061256
:100AAE000729FC120729FD120729FE120729FF78D4
:100ABE00310203EA790AA2D5200314300509B910D0
:100ACE00020404B9080104A2D52006025001042034
:100ADE0002689202B53A005034C0E07F203003190C
:100AEE007F30A20272067205500F120B1BC202C299
:100AFE0006C205C2087F30800F300503E9C0E01240
:100B0E000764300503D0E0F9D0E0B53ACC300517D4
:100B1E007F30B9100C1207647F583004077F78803D
:100B2E0003B908031207643002057F2D0207647FA4
:100B3E00202008F87F2B2006F322920280CF7F0020
:100B4E00B4070050052431F8E6FF22286E756C6C50
:100B5E002900D2011207293001F8C201783A30D5A6
:100B6E000108F60207CF2D504349581207292403D6
:100B7E00B405004001E4900B7493120755743A12B9
:0A0B8E000755D203753A040209A1CD
:10037100E9D2E7C933E833F892D5EDD2E7CD33ECD2
:0703810033FC5002B2D5224B
:10038800EC30E7100FBF000C0EBE00080DBD0004D6
:100398000BEB6014A2D5EB13FCED92E7FD2274FF82
:1003A800FCFDFEFF22E480F8A2D574FF13FC7D80DB
:0303B800E480EFEF
:1003BB00F920E72824F950037907E4F42402FB1809
:1003CB00DBFDE624FB5014E9600DE4F618E604F6B9
:0F03DB00B40A08E4F6D9F57401F60A22C2D52255
:1003EA00ED33EC3392D5FA602AB4FF33EDC2E77BE2
:1003FA00FF60067A04790FE4227A04791820D5047A
:10040A007A047913224E614E002B494E46002D493B
:10041A004E4600E47A08F608DAFC7B00740722E804
:10042A00C0E0ECC0E0EDC0E0EEC0E0EFC0E0EA758D
:10043A00F010A4CAABF075F04DA42BFBE435F0FC28
:10044A00EA2410FAEB34C5FBEC34D9FCEDC2E7FF21
:10045A0075F056A4F42411C5F0F434C58FF0A42A1B
:10046A00E5F03BE43CF620E71412051DD0E0FFD08E
:10047A00E0FED0E0FDD0E0FC12025F8014F404122A
:10048A00051DD0E0FFD0E0FED0E0FDD0E0FC120177
:10049A0056D0E0F8E6FAEDD2E7CD33EC332482FB0E
:1004AA00E4C3CF33CFCE33CECD33CD33DBF37B07AB
:1004BA0075F00A846004F6081B0AE5F0F6088FF066
:1004CA00740AA4FFACF08EF0740AA42CFEACF050AF
:1004DA00010C8DF0740AA42CFDE435F0F608DBDE7D
:0304EA0074072272
:1004ED003F8000004120000042C80000447A000017
:1004FD00461C400047C35000497424004B18968099
:10050D004CBEBC205A0E1BCA6753C21C749DC5AE8F
:10051D00FB60065407601C232312054BEB54386017
:10052D0009120537120546120156ECF8EDF9EEFAEF
:10053D00EFCB22EB12054680F1543803241C9004B6
:10054D00EDFE93FC0EEE93FD0EEE930ECE93FF2279
:100E6900020EE9E493A3F8E493A34003F68001F2A8
:100E790008DFF48029E493A3F85407240CC8C3338A
:100E8900C4540F4420C8834004F456800146F6DF59
:100E9900E4800B0102040810204080901459E47E7C
:100EA900019360BCA3FF543F30E509541FFEE4934E
:100EB900A360010ECF54C025E060A840B8E493A315
:100EC900FAE493A3F8E493A3C8C582C8CAC583CA40
:100ED900F0A3C8C582C8CAC583CADFE9DEE780BEF8
:01146000008B
:10055D00BB010689828A83E0225002E722BBFE029C
:09056D00E32289828A83E49322CF
:10057600BB010CE58229F582E5833AF583E022503A
:1005860006E92582F8E622BBFE06E92582F8E22284
:0D059600E58229F582E5833AF583E493229E
:1005A300BB010689828A83F0225002F722BBFE0137
:0205B300F32231
:1005B50075F008758200EF2FFFEE33FECD33CDCCFD
:1005C50033CCC58233C5829BED9AEC99E582984080
:1005D5000CF582EE9BFEED9AFDEC99FC0FD5F0D65D
:1005E500E4CEFBE4CDFAE4CCF9A88222B800C1B987
:1005F5000059BA002DEC8BF084CFCECDFCE5F0CBC5
:10060500F97818EF2FFFEE33FEED33FDEC33FCEBFD
:1006150033FB10D703994004EB99FB0FD8E5E4F9B8
:10062500FA227818EF2FFFEE33FEED33FDEC33FCA5
:10063500C933C910D7059BE99A4007EC9BFCE99A99
:10064500F90FD8E0E4C9FAE4CCFB2275F010EF2FDE
:10065500FFEE33FEED33FDCC33CCC833C810D707DE
:100665009BEC9AE899400AED9BFDEC9AFCE899F819
:0E0675000FD5F0DAE4CDFBE4CCFAE4C8F922AC
:0E068300C3E49FFFE49EFEE49DFDE49CFC2288
:10069100EB9FF5F0EA9E42F0E99D42F0E89C45F0BF
:0106A1002236
:1006A200E8600FECC313FCED13FDEE13FEEF13FF36
:0306B200D8F1225A
:0C06B500E6FC08E6FD08E6FE08E6FF2271
:0D06C100E6FB08E6F908E6FA08E6CBF822A9
:0C06CE00ECF608EDF608EEF608EFF62258
:1006DA00D083D082E493F608740193F608740293E7
:0906EA00F608740393F67404731E
:1006F300FAE6FB0808E6F925F0F618E6CA3AF62208
:10070300D083D082F8E4937012740193700DA3A385
:1007130093F8740193F5828883E473740293686099
:06072300EFA3A3A380DF99
:1013A800EFB40A07740D1213B3740A309811A89990
:1013B800B8130CC2983098FDA899C298B811F630A5
:0713C80099FDC299F599227D
:00000001FF
